:100000000A128A11FC2F00307005F80000307105CB
:10001000F90080307205FA007F307305FB007B0821
:100020007A0479047804031D162817281F28003045
:10003000F3000030F2000030F1000030F00000303A
:100040007405F80000307505F90080307605FA0077
:100050007F307705FB007B087A0479047804031D60
:10006000322833283B280030F7000030F6000030FB
:10007000F5000030F40077087306031D4928760860
:100080007206031D492875087106031D4928740866
:10009000700603194C284D284F28031050280314CC
:1000A00008008316031388018630810088309F0082
:1000B0004130831203139F0005100A168A15472347
:1000C0000A128A11823083160313C600DD30C50080
:1000D000C50B6828C60B6828831203131F151F1948
:1000E000722873286F281E0883160313C500C601E3
:1000F0004508DE004608DF005F08C6005E08C50050
:100100004508C600C5014508DE004608DF001E0898
:100110005E07C5005F0803185F0AC6004508DE00D9
:100120004608DF00443083120313C1008030C00052
:100130000030BF000030BE004030A700A030A60055
:100140000030A5000030A400831603135E08F00001
:100150005F08F1000030F11BFF30F200F3000130C6
:100160000A168A15AC240A128A1173088312031323
:10017000AB007208AA007108A9007008A8000A1252
:100180008A159F240A128A11831203132708C500B7
:100190002608C4002508C3002408C2000A168A15D0
:1001A00023260A128A1183120313410883160313AC
:1001B000DD0083120313400883160313DC0083124F
:1001C00003133F0883160313DB00831203133E0857
:1001D00083160313DA005D0883120313C500831628
:1001E00003135C0883120313C400831603135B0814
:1001F00083120313C300831603135A0883120313D5
:10020000C2003D30C1008F30C0005C30BF002930DB
:10021000BE000A168A1523260A128A1183120313B6
:100220004108DB004008DA003F08D9003E08D8004A
:100230000A128A1506200A128A118312031359081A
:1002400083160313D900831203135808831603136C
:10025000D8009E30C5004508A0005908A2005808E3
:10026000A100C8300A168A1125250A128A11F40144
:10027000F40A01300A168A1546220A128A11C83079
:100280000A168A1505210A128A1191308316031362
:10029000C5004508A0005D08A4005C08A3005B0839
:1002A000A2005A08A100C8300A168A1125250A1290
:1002B0008A11F401F40A02300A168A1546220A123B
:1002C0008A11C8300A168A1505210A128A110230CD
:1002D00083160313C7008630C6009830C500C50BCF
:1002E0006F29C60B6F29C70B6F2900006C280A12F3
:1002F0008A110028831603134008F3003F08F20018
:100300003E08F1003D08F0000030F7000030F60034
:100310000030F5000030F4000A128A1103200A129E
:100320008A110318942995293D2A8316031340083E
:1003300083120313DB00831603133F088312031396
:10034000DA00831603133E0883120313D9008316C1
:1003500003133D0883120313D8000A128A150620DE
:100360000A128A11831203135B085A0459045804B1
:10037000031DBB29BC293D2A831603133808803A84
:10038000FF0080307F02031DC72902303702031CA3
:10039000CA29CB293D2A831603133208F3003108FA
:1003A000F2003008F1002F08F0004030F7008930EB
:1003B000F6007030F5005F30F4000A168A150A2442
:1003C0000A128A110318E529E629EF29F730831666
:1003D0000313B7070318B80AFF30B807F729F83036
:1003E00083160313B7070318B80AFF30B807370896
:1003F0000A128A1540210A128A1183120313410836
:1004000083160313B20083120313400883160313E9
:10041000B100831203133F0883160313B000831245
:1004200003133E0883160313AF004008F3003F0890
:10043000F2003E08F1003D08F0003208F7003108F4
:10044000F6003008F5002F08F4000A128A15822001
:100450000A128A11730883160313B6007208B500D6
:100460007108B4007008B3000030C0000030BF0055
:100470000030BE000030BD00C12A831603134008BF
:1004800083120313DB00831603133F088312031345
:10049000DA00831603133E0883120313D900831670
:1004A00003133D0883120313D8000A128A1506208D
:1004B0000A128A11831203135B0883160313B60012
:1004C000831203135A0883160313B5008312031310
:1004D000590883160313B4008312031358088316B4
:1004E0000313B3003608F3003508F2003408F100B6
:1004F0003308F00000300A168A15AC240A128A115B
:10050000730883120313E9007208E8007108E7001A
:100510007008E60083160313400883120313ED00EE
:10052000831603133F0883120313EC00831603138F
:100530003E0883120313EB00831603133D08831256
:100540000313EA000A168A1548210A128A11831237
:100550000313690883160313C0008312031368088A
:1005600083160313BF008312031367088316031354
:10057000BE0083120313660883160313BD00B70180
:10058000B801C401C40A4408A50001300310A50D38
:10059000FF3E031DC62A0310250D693E84000A167E
:1005A0008A1500200A128A11A6000A168A15002050
:1005B0000A128A11A7000A168A1500200A128A1147
:1005C000A8000A168A1500200A128A11A900290813
:1005D0003602031DF52A28083502031DF52A2708CF
:1005E0003402031DF52A260833020318F82AF92AD3
:1005F000FA2A042B0130A5002508C4070A30440656
:10060000031D032B042BC32A44084107A5004208FD
:100610000318420AA60037082507A7003808031860
:10062000380A2607A8002708BB022808031CBC03B9
:10063000BC024108420403191E2B1F2B252BFF303F
:10064000BB070318BC0AFF30BC0703303905A500FF
:1006500000303A05A600250826040319302B312B5B
:10066000372BFF30BB070318BC0AFF30BC07391D0E
:100670003A2B3B2B872B03303905A50000303A0578
:10068000A600250826040319462B472B662B2D3080
:10069000A500430884002508831380000130A500CD
:1006A0002508C307662B303083160313A5004308C3
:1006B00084002508831380000130A5002508C307A6
:1006C000FF30BB070318BC0AFF30BC073C08803A68
:1006D000FF0080307F02031D6F2B01303B020318A7
:1006E000722B732B532B342C203083160313A5004D
:1006F000430884002508831380000130A5002508E5
:10070000C307FF30BB070318BC0AFF30BC073C0817
:10071000803AFF0080307F02031D902B01303B02A6
:100720000318932B942B742B033083160313390572
:10073000A50000303A05A600250826040319A12BC0
:10074000A22B342C2D30A5004308840025088313E8
:1007500080000130A5002508C307342C4408A500FB
:1007600001300310A50DFF3E031DB12B0310250D15
:10077000693E84000A168A1500200A128A11F000C8
:100780000A168A1500200A128A11F1000A168A1523
:1007900000200A128A11F2000A168A1500200A1295
:1007A0008A11F3003608F7003508F6003408F50022
:1007B0003308F4000A168A15A4230A128A11730852
:1007C00083160313B2007208B1007108B0007008FC
:1007D000AF00003083120313A3000030A2000030EA
:1007E000A1000A30A00083160313320883120313FA
:1007F000A70083160313310883120313A600831680
:100800000313300883120313A500831603132F0864
:1008100083120313A4000A168A1598220A128A1159
:1008200083120313230883160313B20083120313E6
:10083000220883160313B1008312031321088316C1
:100840000313B00083120313200883160313AF00B1
:100850002F08303EA500430884002508831380003C
:100860000130A5002508C307013083160313C40215
:10087000440A031D3C2C3D2CAE2B512C30308316EA
:100880000313A5004308840025088313800001306A
:10089000A5002508C307FF30B7070318B80AFF30C3
:1008A000B8073808803AFF0080307F02031D5A2CB9
:1008B0000130370203185D2C5E2C3E2C8316031387
:1008C0004208803AFF0080307F02031D692C093006
:1008D0004102031C6C2C6D2C742C083083160313FE
:1008E000A5002508C4007A2C831603134108A5002F
:1008F0002508C4004408A500A6012508C102260851
:10090000031CC203C20244080319872C882C932CB1
:100910002E30A50043088400250883138000013091
:10092000A5002508C30744080A128A1540210A12A7
:100930008A1183120313410883160313AD00831237
:100940000313400883160313AC00831203133F08FC
:1009500083160313AB00831203133E08831603139D
:10096000AA002D0883120313AB00831603132C086F
:1009700083120313AA00831603132B088312031395
:10098000A900831603132A0883120313A8008316F1
:100990000313400883120313A700831603133F08B1
:1009A00083120313A600831603133E088312031356
:1009B000A500831603133D0883120313A4000A1233
:1009C0008A159F240A128A11831203132708DB0059
:1009D0002608DA002508D9002408D8000A128A154A
:1009E00006200A128A11831203135B08831603136D
:1009F000B600831203135A0883160313B50083123B
:100A00000313590883160313B40083120313580801
:100A100083160313B300ED2D4408A5000130031025
:100A2000A50DFF3E031D0F2D0310250D693E84000B
:100A30000A168A1500200A128A11F0000A168A1571
:100A400000200A128A11F1000A168A1500200A12E3
:100A50008A11F2000A168A1500200A128A11F30080
:100A60003608F7003508F6003408F5003308F400BE
:100A70000A168A15A4230A128A117308831603130F
:100A8000B2007208B1007108B0007008AF00003009
:100A900083120313A3000030A2000030A1000A302B
:100AA000A00083160313320883120313A7008316D2
:100AB0000313310883120313A600831603133008AF
:100AC00083120313A500831603132F088312031345
:100AD000A4000A168A1598220A128A118312031397
:100AE000230883160313B20083120313220883160C
:100AF0000313B10083120313210883160313B000FC
:100B000083120313200883160313AF002F08303E0F
:100B1000A500430884002508831380000130A50048
:100B20002508C3074408A50001300310A50DFF3EAA
:100B3000031D952D0310250D693E84000A168A15A4
:100B400000200A128A1183120313A0000A168A15C4
:100B500000200A128A11A1000A168A1500200A1222
:100B60008A11A2000A168A1500200A128A11A3000F
:100B700083160313360883120313A7008316031387
:100B8000350883120313A600831603133408831257
:100B90000313A50083160313330883120313A40061
:100BA0000A168A1598220A128A118312031323083F
:100BB00083160313B600831203132208831603134C
:100BC000B50083120313210883160313B4008312A4
:100BD0000313200883160313B3000130C402440A30
:100BE000031DF32DF42D0C2D062E3030A5004308E7
:100BF00084002508831380000130A5002508C30761
:100C0000FF30C1070318C20AFF30C207410842047F
:100C1000031D0B2E0C2EF52DE32F2E0884008313BD
:100C20000008A500840A0008A6002508B3002608CD
:100C3000B4000030B41BFF30B500B6000230A50090
:100C40002508AE07B61F252E262E352E0330B904F3
:100C50000030BA04B309B409B509B609B30A0319D7
:100C6000B40A0319B50A0319B60A41084204031D60
:100C70003A2E3B2E492E3608350434043304031D26
:100C8000422E432E492E0130C1070318C20A0030FC
:100C9000C207C401C40A4408A50001300310A50D11
:100CA000FF3E031D4E2E0310250D693E84000A16DB
:100CB0008A1500200A128A11A6000A168A15002039
:100CC0000A128A11A7000A168A1500200A128A1130
:100CD000A8000A168A1500200A128A11A9002908FC
:100CE0003602031D7D2E28083502031D7D2E2708A0
:100CF0003402031D7D2E260833020318802E812E18
:100D0000822E8C2E0130A5002508C4070A30440627
:100D1000031D8B2E8C2E4B2E4208803A803C031DE7
:100D2000932E410844020318962E972E9E2E83166A
:100D300003134108A5002508C400B62E831603132B
:100D40004208803AA50080302502031DA92E4408E0
:100D500041020318AC2EAD2EB62E831603134408A1
:100D6000A500A6012508C1002608C20083160313AA
:100D70003B083C040319BD2EBE2ED02E033039058E
:100D8000A50000303A05A600250826040319C92E3F
:100D9000CA2ED02EFF30BB070318BC0AFF30BC0799
:100DA0003A1FD32ED42EEF2E4208803AA5003C08DD
:100DB000803A2502031DDE2E3B0841020318E12E76
:100DC000E22EEB2E831603134108BB024208031CDC
:100DD000BC03BC02EF2E83160313BB01BC013C080D
:100DE000803A803C031DF62E3B0844020318F92E7E
:100DF000FA2E062F831603134408A500A601250822
:100E0000BB022608031CBC03BC020A2F8316031373
:100E1000BB01BC01391D0D2F0E2F432F03303905A7
:100E2000A50000303A05A600250826040319192F4D
:100E30001A2F252F2D30A500430884002508831381
:100E400080000130A5002508C3073B083C040319B6
:100E50002A2F2B2FD52F3030A500430884002508DA
:100E6000831380000130A5002508C307FF30BB07AE
:100E70000318BC0AFF30BC073B083C04031D412F8C
:100E8000422F2B2FD52F3B083C040319482F492F05
:100E9000602F2030A50043088400250883138000BC
:100EA0000130A5002508C307FF30BB070318BC0AA3
:100EB000FF30BC073B083C04031D5F2F602F492F08
:100EC00003303905A50000303A05A60025082604A0
:100ED00003196B2F6C2FD52F2D30A50043088400EC
:100EE0002508831380000130A5002508C307D52FEE
:100EF000003083120313A3000030A2000030A100D1
:100F00000A30A000831603134108A5000130031026
:100F1000A50DFF3E031D872F0310250D693E84009C
:100F20000A168A1500200A128A11F0000A168A157C
:100F300000200A128A11F1000A168A1500200A12EE
:100F40008A11F2000A168A1500200A128A11F3008B
:100F50003608F7003508F6003408F5003308F400C9
:100F60000A168A15A4230A128A117308831203131E
:100F7000A7007208A6007108A5007008A4000A1650
:100F80008A1598220A128A11831203132008303E10
:100F900083160313A6002608C4004408A5004308CE
:100FA0008400250883138000732FFF30C1070318C6
:100FB000C20AFF30C207410A031DE22F420A031D85
:100FC000E22FE32F782F0130A007FF3020078400A5
:100FD0000A168A1500200A128A11A5002508C400E5
:100FE0004408031DF42FF72F0A168A112F2D4308EA
:100FF000840083138001080083010A128A1151289A
:10100C000310831203135A0D5B0DDC005C08E20025
:10101C006208031D122813281C280030DB00003046
:10102C00DA000030D9000030D80081285808DC00E4
:10103C005908DD005A08DE005B08DF001F30031082
:10104C00DF0CDE0CDD0CDC0CFF3E031D25285C08E0
:10105C00E0006008E100DA17FF30D805FF30D90551
:10106C00FF30DA050030DB059630E202E21F3F2844
:10107C0040285A286208803A973E03184628472889
:10108C004828132801300310DB0CDA0CD90CD80CCF
:10109C00FF3E031D49280130DC005C08E207031DFC
:1010AC00582859284828712820306202031C5F28D0
:1010BC0060286C2813280130DC000310D80DD90DE2
:1010CC00DA0DDB0DDC0B63280130E2026208031D34
:1010DC0070287128612861080319752876288128E1
:1010EC00D809D909DA09DB09D80A0319D90A03196D
:1010FC00DA0A0319DB0A08000310720D730DF800ED
:10110C00780883120313A5002508031D8E288F2849
:10111C0098280030F3000030F2000030F10000306D
:10112C00F0003F290310760D770DF8007808A40025
:10113C002408031DA228A328A4288F28F217FF3007
:10114C00F005FF30F105FF30F2050030F305F6171E
:10115C00FF30F405FF30F505FF30F6050030F705DC
:10116C000030A3000030A2000030A1000030A0002D
:10117C007F30A502A0302407F8007808A5022030A3
:10118C00F8007808A4000130F8000310A00DA10DA0
:10119C00A20DA30DF80BCB2877087302031DE028D2
:1011AC0076087202031DE02875087102031DE02801
:1011BC0074087002031CE328E428F3287408F00276
:1011CC007508031C750FF1027608031C760FF202EA
:1011DC007708031C770FF30220140130F80003107A
:1011EC00F00DF10DF20DF30DF80BF5280130A40202
:1011FC00031D01290229C928A51F05290629202913
:10120C002508803A9F3E03180C290D290E298F289A
:10121C0001300310A30CA20CA10CA00CFF3E031D6B
:10122C000F290130F8007808A507031D1E291F2976
:10123C000E29372920302502031C2529262932297D
:10124C008F280130F8000310A00DA10DA20DA30DE5
:10125C00F80B29290130A5022508031D3629372949
:10126C0027292308F3002208F2002108F1002008A6
:10127C00F000080083120313D000D01F4629472921
:10128C00F42AD009D00A5008803A123E031C4F2988
:10129C005029382A0A30F7000030F8005008F200C4
:1012AC00F301F21BF3036430F0000030F1000A1676
:1012BC008A15EE220A128A157108FA007008F900D4
:1012CC000A168A1129200A128A1577088312031329
:1012DC00C20001300310C20DFF3E031D7029031024
:1012EC00420D593E84000A168A1500200A128A15EE
:1012FC00C3000A168A1500200A128A15C4000A16A1
:10130C008A1500200A128A15C5000A168A150020B3
:10131C000A128A15C6004608A7004508A60044080C
:10132C00A5004308A4006430F7000030F800500812
:10133C00F900FA01F91BFA030A168A1129200A127C
:10134C008A15770883120313C70001300310C70DE9
:10135C00FF3E031DAC290310470D7D3E84000A1689
:10136C008A1500200A128A15C8000A168A15002050
:10137C000A128A15C9000A168A1500200A128A1543
:10138C00CA000A168A1500200A128A15CB004B08CF
:10139C00AB004A08AA004908A9004808A8000A128C
:1013AC008A159F240A128A15831203132708CF006B
:1013BC002608CE002508CD002408CC000A30F00009
:1013CC000030F1005008F200F301F21BF3030A168F
:1013DC008A15EE220A128A15700883120313C200B2
:1013EC0001300310C20DFF3E031DF7290310420DFF
:1013FC00353E84000A168A1500200A128A15C3008D
:10140C000A168A1500200A128A15C4000A168A15B3
:10141C0000200A128A15C5000A168A1500200A1225
:10142C008A15C6004608A7004508A6004408A50072
:10143C004308A4004F08AB004E08AA004D08A900B1
:10144C004C08A8000A128A159F240A128A158312C6
:10145C0003132708C1002608C0002508BF00240874
:10146C00BE009E2C5008803A753E031C3E2A3F2A33
:10147C00C72A0A30F0000030F1005008F200F301E6
:10148C00F21BF3030A168A15EE220A128A1570084B
:10149C0083120313C20001300310C20DFF3E031D63
:1014AC00522A0310420D353E84000A168A1500207C
:1014BC000A128A15C3000A168A1500200A128A1508
:1014CC00C4000A168A1500200A128A15C5000A16CD
:1014DC008A1500200A128A15C6004608A70045087E
:1014EC00A6004408A5004308A4000A30F700003009
:1014FC00F8005008F900FA01F91BFA030A168A11D0
:10150C0029200A128A15770883120313C7000130A9
:10151C000310C70DFF3E031D8E2A0310470D593EC5
:10152C0084000A168A1500200A128A15C8000A16A9
:10153C008A1500200A128A15C9000A168A1500207D
:10154C000A128A15CA000A168A1500200A128A1570
:10155C00CB004B08AB004A08AA004908A900480870
:10156C00A8000A128A159F240A128A1583120313E3
:10157C002708C1002608C0002508BF002408BE00AB
:10158C009E2C5008C20001300310C20DFF3E031DFB
:10159C00CA2A0310420D353E84000A168A15002013
:1015AC000A128A15C3000A168A1500200A128A1517
:1015BC00C4000A168A1500200A128A15C5000A16DC
:1015CC008A1500200A128A15C6004608C100450873
:1015DC00C0004408BF004308BE009E2C5008803A4F
:1015EC00123E031CFA2AFB2AE32B0A30F7000030C8
:1015FC00F8005008F200F301F21BF3036430F00022
:10160C000030F1000A168A15EE220A128A157108AA
:10161C00FA007008F9000A168A1129200A128A1594
:10162C00770883120313C20001300310C20DFF3E72
:10163C00031D1B2B0310420D253E84000A168A1530
:10164C0000200A128A15C3000A168A1500200A12F5
:10165C008A15C4000A168A1500200A128A15C500BC
:10166C000A168A1500200A128A15C6004608A70019
:10167C004508A6004408A5004308A4006430F70000
:10168C000030F8005008F900FA01F91BFA030A16A9
:10169C008A1129200A128A15770883120313C700AE
:1016AC0001300310C70DFF3E031D572B0310470DD0
:1016BC00493E84000A168A1500200A128A15C800B1
:1016CC000A168A1500200A128A15C9000A168A15EC
:1016DC0000200A128A15CA000A168A1500200A125E
:1016EC008A15CB004B08AB004A08AA004908A90090
:1016FC004808A8000A128A159F240A128A15831218
:10170C0003132708CF002608CE002508CD00240897
:10171C00CC000A30F0000030F1005008F200F30168
:10172C00F21BF3030A168A15EE220A128A157008A8
:10173C0083120313C20001300310C20DFF3E031DC0
:10174C00A22B0310420D013E84000A168A150020BC
:10175C000A128A15C3000A168A1500200A128A1565
:10176C00C4000A168A1500200A128A15C5000A162A
:10177C008A1500200A128A15C6004608A7004508DB
:10178C00A6004408A5004308A4004F08AB004E086F
:10179C00AA004D08A9004C08A8000A128A159F241B
:1017AC000A128A15831203132708C1002608C000E9
:1017BC002508BF002408BE009E2C5008803A753EB8
:1017CC00031CE92BEA2B722C0A30F0000030F100DC
:1017DC005008F200F301F21BF3030A168A15EE22ED
:1017EC000A128A15700883120313C2000130031009
:1017FC00C20DFF3E031DFD2B0310420D013E840064
:10180C000A168A1500200A128A15C3000A168A15B0
:10181C0000200A128A15C4000A168A1500200A1222
:10182C008A15C5000A168A1500200A128A15C600E8
:10183C004608A7004508A6004408A5004308A400D4
:10184C000A30F7000030F8005008F900FA01F91BD3
:10185C00FA030A168A1129200A128A1577088312AC
:10186C000313C70001300310C70DFF3E031D392CB5
:10187C000310470D253E84000A168A1500200A1213
:10188C008A15C8000A168A1500200A128A15C90082
:10189C000A168A1500200A128A15CA000A168A1519
:1018AC0000200A128A15CB004B08AB004A08AA008C
:1018BC004908A9004808A8000A128A159F240A1290
:1018CC008A15831203132708C1002608C0002508B7
:1018DC00BF002408BE009E2C5008C200013003102B
:1018EC00C20DFF3E031D752C0310420D013E8400FA
:1018FC000A168A1500200A128A15C3000A168A15C0
:10190C0000200A128A15C4000A168A1500200A1231
:10191C008A15C5000A168A1500200A128A15C600F7
:10192C004608C1004508C0004408BF004308BE007B
:10193C0008008312031327088039AC002C08B1006F
:10194C002708AC002C07AD002D08B700A61FAF2C44
:10195C00B02CB12C371437080319B52CB62CC52C68
:10196C00370A031DBA2CBB2CC32C0030A700003047
:10197C00A6000030A5000030A400A617CD2C003026
:10198C00A7000030A6000030A5000030A4002B08F2
:10199C008039AC002C08B1062B08AC002C07AD002C
:1019AC002D08B600AA1FDB2CDC2CDD2C36143608D7
:1019BC000319E12CE22CF12C360A031DE62CE72C42
:1019CC00EF2C0030AB000030AA000030A900003032
:1019DC00A800AA17F92C0030AB000030AA00003088
:1019EC00A9000030A80036080319FD2CFE2C032D8D
:1019FC003708031D022D032D0C2D0030A7000030DD
:101A0C00A6000030A5000030A400FF2F2408AC0075
:101A1C002C08F0002A080A168A1102200A128A15CC
:101A2C00710883120313BD007008BC003C08AC00A5
:101A3C00AD01AE01AF012F08B5002E08B4002D0882
:101A4C00B3002C08B2003D08AC00AD01AE01AF01F3
:101A5C002F08BB002E08BA002D08B9002C08B800BE
:101A6C002508AC002C08F00029080A168A1102205F
:101A7C000A128A15710883120313BD007008BC008A
:101A8C003C08AC00AD01AE01AF012C08B2072D082B
:101A9C0003110318013E0319542DB3072E0803112B
:101AAC000318013E03195B2DB4072F08031103180B
:101ABC00013E0319622DB5073D08AC00AD01AE0126
:101ACC00AF012C08B8072D0803110318013E0319A8
:101ADC00702DB9072E0803110318013E0319772D39
:101AEC00BA072F0803110318013E03197E2DBB07FB
:101AFC002608AC002C08F00028080A168A110220CF
:101B0C000A128A15710883120313BD007008BC00F9
:101B1C003C08AC00AD01AE01AF012C08B2072D089A
:101B2C0003110318013E03199C2DB3072E08031152
:101B3C000318013E0319A32DB4072F080311031832
:101B4C00013E0319AA2DB5073D08AC00AD01AE014D
:101B5C00AF012C08B8072D0803110318013E031917
:101B6C00B82DB9072E0803110318013E0319BF2D18
:101B7C00BA072F0803110318013E0319C62DBB0722
:101B8C000830AC000310B20DB30DB40DB50DAC0B99
:101B9C00C82D2508AC002C08F00028080A168A115C
:101BAC0002200A128A15710883120313BD007008F3
:101BBC00BC003C08AC003D08AD00AE01AF012C08E8
:101BCC00B2072D0803110318013E0319EE2DB307BC
:101BDC002E0803110318013E0319F52DB4072F0825
:101BEC0003110318013E0319FC2DB5072408AC00A2
:101BFC002C08F00029080A168A1102200A128A15EC
:101C0C00710883120313BD007008BC003C08AC00C3
:101C1C003D08AD00AE01AF012C08B2072D08031131
:101C2C000318013E03191B2EB3072E0803110318CA
:101C3C00013E0319222EB4072F0803110318013E8D
:101C4C000319292EB5070830AC000310B20DB30DE3
:101C5C00B40DB50DAC0B2B2E2408AC002C08F000E9
:101C6C0028080A168A1102200A128A157108831292
:101C7C000313BD007008BC003C08AC003D08AD006F
:101C8C00AE01AF012C08B2072D0803110318013E59
:101C9C000319512EB3072E0803110318013E031923
:101CAC00582EB4072F0803110318013E03195F2E99
:101CBC00B5072508AC002C08F0002A080A168A1172
:101CCC0002200A128A15710883120313BD007008D2
:101CDC00BC003C08AC003D08AD00AE01AF012C08C7
:101CEC00B8072D0803110318013E03197E2EB907FE
:101CFC002E0803110318013E0319852EBA072F086D
:101D0C0003110318013E03198C2EBB072608AC00E7
:101D1C002C08F00029080A168A1102200A128A15CA
:101D2C00710883120313BD007008BC003C08AC00A2
:101D3C003D08AD00AE01AF012C08B8072D0803110A
:101D4C000318013E0319AB2EB9072E080311031813
:101D5C00013E0319B22EBA072F0803110318013ED6
:101D6C000319B92EBB072608AC002C08F0002A0872
:101D7C000A168A1102200A128A157108831203139B
:101D8C00BD007008BC003C08AC003D08AD00AE01C5
:101D9C00AF0108300310AC0DAD0DAE0DAF0DFF3E15
:101DAC00031DD02E2C08B8072D0803110318013E73
:101DBC000319E12EB9072E0803110318013E03196C
:101DCC00E82EBA072F0803110318013E0319EF2E52
:101DDC00BB073208AC003308AD003408AE00350840
:101DEC00AF0018300310AF0CAE0CAD0CAC0CFF3EBA
:101DFC00031DF82E2C08B8072D0803110318013EFB
:101E0C000319092FB9072E0803110318013E0319F2
:101E1C00102FBA072F0803110318013E0319172FAF
:101E2C00BB070830AC000310B20DB30DB40DB50DEB
:101E3C00AC0B192F37083607AC00AD01AD0D2C08D3
:101E4C00823EBC002D080318013EFF3EBD004B2F07
:101E5C000130AC000310B80DB90DBA0DBB0DAC0BB5
:101E6C00302FB51F3A2F3B2F3C2F38140130AC00CC
:101E7C000310B20DB30DB40DB50DAC0B3E2FFF30EE
:101E8C00BC070318BD0AFF30BD07BA1F4E2F4F2FDA
:101E9C002E2FB601B51F532F542F702FFF30320544
:101EAC00AC00FF303305AD00FF303405AE007F30A1
:101EBC003505AF002F082E042D042C040319672FB1
:101ECC00682F6B2FB601B60A702F381C6E2F6F2F30
:101EDC00702F682F36080319742F752FA62F013019
:101EEC00B807003003180130B9070030031801306F
:101EFC00BA07003003180130BB073B1C862F872F15
:101F0C00A62F3808AC003908AD003A08AE003B08E3
:101F1C00AF000130B0002F0DAF0CAE0CAD0CAC0C03
:101F2C00B00B912F2F08BB002E08BA002D08B9005A
:101F3C002C08B8000130BC070318BD0A0030BD07DF
:101F4C003D08803AFF0080307F02031DAF2FFF3029
:101F5C003C02031CB22FB32FBE2F7F30831203130E
:101F6C00BB008030BA000030B9000030B800F32F4D
:101F7C00831203133D08803AFF0080307F02031D5B
:101F8C00C92F01303C020318CC2FCD2FD92F003094
:101F9C0083120313BB000030BA000030B9000030CC
:101FAC00B800B101F32F831203133C08AC002C08CA
:101FBC00B700FF30B805FF30B9057F30BA050030E7
:101FCC00BB05371CEA2FEB2FEC2FBA173708AC00E8
:101FDC0003102C0CAD002D08BB003108AC002C08F4
:101FEC00BB043B08A7003A08A6003908A50038082E
:041FFC00A400080035
:10200400F800F401F5017008F200F3017208F6001B
:102014007308F700781C0F28102816287608F40790
:102024000318F50A7708F50701300310F60DF70DCC
:10203400FF3E031D17280310F80C7808031D2328FE
:1020440024280C287508F1007408F0000800831295
:102054000313A101F81F2F2830283728F709F8099E
:10206400F70A0319F80AA101A10AFA1F3A283B2822
:102074004428F909FA09F90A0319FA0A0130FB009C
:102084007B08A106A201A3017708780403194B2851
:102094004C288328A001A00A5A2801300310F70D08
:1020A400F80DFF3E031D50280130FB007B08A007FC
:1020B400F81F5D285E284F2801300310A20DA30DE0
:1020C400FF3E031D5F2878087A02031D6B287708FA
:1020D4007902031C6E286F2876287708F90278089D
:1020E400031CFA03FA02221401300310F80CF70C53
:1020F400FF3E031D77280130A002031D8228832898
:102104005E2821080319872888288D28A209A30995
:10211400A20A0319A30A2308F8002208F7000800FA
:1021240083120313D1006E305102031C9A289B289A
:10213400A8293F30A7000030A6000030A5000030D9
:10214400A4006430F6000030F7005108C200C30157
:102154004208F8004308F9000A168A1502220A16F2
:102164008A11760883120313C40001300310C40DCE
:10217400FF3E031DB8280310440D7D3E84000A165B
:102184008A1500200A168A11C5000A168A1500202D
:102194000A168A11C6000A168A1500200A168A1120
:1021A400C7000A168A1500200A168A11C8004808B2
:1021B400AB004708AA004608A9004508A8000A126F
:1021C4008A159F240A168A11831203132708D00044
:1021D4002608CF002508CE002408CD000A30F600DA
:1021E4000030F7005108C200C3014208F20043085E
:1021F400F3006430F0000030F1000A168A15C8219B
:102204000A168A117108F9007008F8000A168A156E
:1022140002220A168A11760883120313C4000130BD
:102224000310C40DFF3E031D12290310440D593E33
:1022340084000A168A1500200A168A11C5000A1697
:102244008A1500200A168A11C6000A168A1500206B
:102254000A168A11C7000A168A1500200A168A115E
:10226400C8004808A7004708A6004608A500450876
:10227400A4005008AB004F08AA004E08A9004D085E
:10228400A8000A128A159F240A168A1183120313BE
:102294002708CC002608CB002508CA002408C9005A
:1022A4000A30F0000030F1005108C200C3014208B6
:1022B400F2004308F3000A168A15C8210A168A1187
:1022C400700883120313C40001300310C40DFF3ED1
:1022D400031D67290310440D353E84000A168A1530
:1022E40000200A168A11C5000A168A1500200A164B
:1022F4008A11C6000A168A1500200A168A11C70018
:102304000A168A1500200A168A11C8004808A70070
:102314004708A6004608A5004508A4004C08AB00E1
:102324004B08AA004A08A9004908A8000A128A15FD
:102334009F240A168A11831203132708C100260852
:10234400C0002508BF002408BE009C2A0B3051029F
:10235400031CAD29AE29592A3F30A7000030A6003E
:102364000030A5000030A4000A30F6000030F70069
:102374005108C200C3014208F8004308F9000A16D4
:102384008A1502220A168A11760883120313C400DE
:1023940001300310C40DFF3E031DCB290310440D6F
:1023A400593E84000A168A1500200A168A11C500AF
:1023B4000A168A1500200A168A11C6000A168A15FA
:1023C40000200A168A11C7000A168A1500200A1668
:1023D4008A11C8004808AB004708AA004608A900AB
:1023E4004508A8000A128A159F240A168A11831226
:1023F40003132708D0002608CF002508CE002408A0
:10240400CD000A30F0000030F1005108C200C301D1
:102414004208F2004308F3000A168A15C8210A1676
:102424008A11700883120313C40001300310C40D11
:10243400FF3E031D182A0310440D353E84000A167E
:102444008A1500200A168A11C5000A168A1500206A
:102454000A168A11C6000A168A1500200A168A115D
:10246400C7000A168A1500200A168A11C8004808EF
:10247400A7004708A6004608A5004508A400500880
:10248400AB004F08AA004E08A9004D08A8000A1284
:102494008A159F240A168A11831203132708C10080
:1024A4002608C0002508BF002408BE009C2A3F302F
:1024B400A7000030A6000030A5000030A400510899
:1024C400C20001300310C20DFF3E031D642A031035
:1024D400420D353E84000A168A1500200A168A1118
:1024E400C3000A168A1500200A168A11C4000A16A7
:1024F4008A1500200A168A11C5000A168A150020BA
:102504000A168A11C6004608AB004508AA0044080A
:10251400A9004308A8000A128A159F240A168A11E2
:10252400831203132708C1002608C0002508BF0032
:102534002408BE0008008312031355088039DA000A
:102544005A08E2005508DA005A07DB005B08E40089
:10255400D41FAD2AAE2AAF2A641464080319B32A1F
:10256400B42AC42A640A031DB82AB92AC12A00302D
:10257400D5000030D4000030D3000030D200D4178E
:10258400D501CC2A0030D5000030D4000030D3006F
:102594000030D20059088039DA005A08E300630891
:1025A40062060319D62AD72AD82A62175908DA00EC
:1025B4005A07DB005B08E300D81FE12AE22AE32A7A
:1025C400631463080319E72AE82AF82A630A031D37
:1025D400EC2AED2AF52A0030D9000030D80000306A
:1025E400D7000030D600D817D901002B0030D9000D
:1025F4000030D8000030D7000030D60064086302F1
:102604000318052B062B4A2B621F092B0A2B0E2BB2
:102614008030DA005A08E2066408DA005A08E50055
:102624006308DA005A08E4006508DA005A08E3008F
:102634005208DA005A08E5005608DA005A08D200AF
:102644006508DA005A08D6005308DA005A08E5008B
:102654005708DA005A08D3006508DA005A08D70088
:102664005408DA005A08E5005808DA005A08D40079
:102674006508DA005A08D8005508DA005A08E50057
:102684005908DA005A08D5006508DA005A08D90052
:10269400E5016308DA00DB015B08DD0064085A0227
:1026A400DC00031CDD035D08803AFF0080307F02FC
:1026B400031D5E2B1A305C02031C612B622B9F2BC3
:1026C400831203135508540453045204031D6B2B43
:1026D4006D2B01306E2B0030DA005A08E500003013
:1026E400D5000030D4000030D3000030D20063089D
:1026F400DA005A08E400A72B651C812B822B8B2B54
:102704006508DA0003105A0C0138DB005B08E500A9
:102714008D2B0310E50C521C902B912B922BE5175B
:102724000130DA00550DD50CD40CD30CD20CDA0BD5
:10273400942B0130DA005A08E40783120313630868
:102744006402031CA62BA72B7E2B621BAA2BAB2B8C
:10275400F62B6408031DAF2BB02BB92B0030D5002A
:102764000030D4000030D3000030D200242D5608AD
:10277400D207570803110318013E0319C22BD307CC
:10278400580803110318013E0319C92BD40759082B
:1027940003110318013E0319D02BD507551CD32B65
:1027A400D42BAA2C651CD72BD82BE12B6508DA0077
:1027B40003105A0C0138DB005B08E500E32B03101F
:1027C400E50C521CE62BE72BE82BE5170130DA0069
:1027D400550DD50CD40CD30CD20CDA0BEA2B0130EA
:1027E400DA005A08E407AA2C5508803AFF00590871
:1027F400803A7F02031D082C58085402031D082C3C
:1028040057085302031D082C5608520203180B2CB8
:102814000C2C642CFF30DA00FF30DB00FF30DC00CE
:10282400FF30DD005608DE005708DF005808E000DE
:102834005908E1005208DE025308031C530F232CED
:10284400242CDF025408031C540F292C2A2CE002E8
:102854005508031C550F2F2C302CE1025E08DA07B3
:102864005F0803185F0F372C382CDB076008031848
:10287400600F3D2C3E2CDC0761080318610ADD075C
:102884005D08D5005C08D4005B08D3005A08D20068
:102894008030DA005A08E206E509E50A6508031DF6
:1028A400542C552C722C0130D207003003180130FF
:1028B400D307003003180130D40700300318013067
:1028C400D507722C5608D2025708031C570FD3029F
:1028D4005808031C580FD4025908031C590FD50279
:1028E4005508540453045204031D792C7A2CA62C45
:1028F4006508031D7E2C7F2CA62C0030D5000030EB
:10290400D4000030D3000030D200242D0130DA008E
:102914000310D20DD30DD40DD50DDA0B8A2CE51F7F
:10292400942C952C962C5214651C992C9A2C9D2C25
:102934000314E50D9F2C0310E50D64080319A32C63
:10294400A42CA62C0130E402D41FA92CAA2C882C78
:10295400E301E51FAE2CAF2CBD2C65087F390319AC
:10296400B42CB52CB82CE301E30ABD2C521CBB2CAF
:10297400BC2CBD2CB52C63080319C12CC22CF62C1D
:102984000130D207003003180130D3070030031898
:102994000130D407003003180130D507551CD32C5F
:1029A400D42CF62C5208DA005308DB005408DC005F
:1029B4005508DD000130DE005D0DDD0CDC0CDB0CA8
:1029C400DA0CDE0BDE2C5D08D5005C08D4005B0855
:1029D400D3005A08D200640A0319F12CF22CF62C05
:1029E4000130DA005A08E407640A0319FA2CFB2CB4
:1029F400002D6408031DFF2C002D0E2D0030D50082
:102A04000030D4000030D3000030D2006408031D2D
:102A14000C2D0D2D0E2DE201641C112D122D142DE3
:102A2400D417182D7F30DA005A08D4056408DA0068
:102A340003105A0CDB005B08D500E21F222D232D66
:102A4400242DD517080083160313C300A130A50055
:102A54002508AE000A128A11E32F25304406031913
:102A6400342D352D412D4408A50043088400250844
:102A7400831380000130A5002508C3072C2DBB015A
:102A8400BC01B901BA014B2D39150130A500250847
:102A9400A007200884000A168A1500200A168A1145
:102AA400A500A6012608003A0319592D5E2D250814
:102AB400303A0319462D5E2D200884000A168A1523
:102AC40000200A168A110A168A15D9200A168A11B4
:102AD400031C6D2D6E2DAE2D83160313BB01BC019B
:102AE4000A30F0000030F100831603133C08F300B1
:102AF4003B08F2000A168A156C210A168A1171081D
:102B040083160313BC007008BB00200884000A1657
:102B14008A1500200A168A11D03EA500FF3003183A
:102B24000030A6002508BB070318BC0A2608BC070A
:102B34000130A5002508A007200884000A168A157C
:102B440000200A168A110A168A15D9200A168A1133
:102B54000318AD2DAE2D722D8316031320088400A7
:102B64000A168A1500200A168A112E3A031DBB2D57
:102B7400BC2D012E3A170130A5002508A007C1017C
:102B8400C201F02D0A30F0000030F1008316031367
:102B94004208F3004108F2000A168A156C210A164D
:102BA4008A11710883160313C2007008C10020083B
:102BB40084000A168A1500200A168A11D03EA50040
:102BC400FF3003180030A6002508C1070318C20A05
:102BD4002608C2070130A5002508A00720088400A4
:102BE4000A168A1500200A168A110A168A15D9208F
:102BF4000A168A110318FF2D002EC42D072EC101B9
:102C0400C2013A16072E3A15292E013083160313F2
:102C1400A007FF30200784000A168A1500200A1630
:102C24008A11C400A500A6012608003A03191B2E28
:102C34002C2D2508003A0319FD2F643A0319292E77
:102C4400023A0319052E0F3A0319292E2C2D0030B0
:102C54003905A50007303A05A600250826040319FE
:102C6400342E372E0A128A110D2E3A1E3A2E3B2E7E
:102C74003F2E0630C1000030C2002E0884008313AA
:102C84000008BD00840A0008BE00840A0008BF00D2
:102C9400840A0008C0000430A5002508AE074008D7
:102CA400F3003F08F2003E08F1003D08F000003058
:102CB400F7000030F6000030F5000030F4000A168A
:102CC4008A150A240A168A110318692E6A2E872E79
:102CD400831603134008F3003F08F2003E08F10096
:102CE4003D08F0000A168A15CE200A168A117308C8
:102CF40083160313C0007208BF007108BE00700879
:102D0400BD000330B9040030BA0483160313B701BD
:102D1400B8014008F3003F08F2003E08F1003D0806
:102D2400F0000030F7000030F6000030F50000300D
:102D3400F4000A128A1103200A168A110318A32E1A
:102D4400A42E942F0310831603133F0D400D823ECF
:102D5400B700FF3003180030B800FF30B70703187E
:102D6400B80AFF30B8070330F0000030F10038082B
:102D7400F3003708F2000A168A156C210A168A1124
:102D8400710883160313B8007008B7000A30F700FF
:102D94000030F8003808FA003708F9000A168A11DA
:102DA40029200A168A11780883160313B8007708B5
:102DB400B700B81FDE2EDF2EE52EFF30B70703184D
:102DC400B80AFF30B8073703FF3A0A128A154021C0
:102DD4000A168A1183120313410883160313B200DF
:102DE40083120313400883160313B10083120313E1
:102DF4003F0883160313B000831203133E0883169F
:102E04000313AF00400883120313A70083160313B0
:102E14003F0883120313A600831603133E0883128C
:102E24000313A500831603133D0883120313A400A0
:102E340083160313320883120313AB0083160313A0
:102E4400310883120313AA00831603133008831274
:102E54000313A900831603132F0883120313A80076
:102E64000A128A159F240A168A118312031327084B
:102E740083160313B2008312031326088316031365
:102E8400B10083120313250883160313B0008312C1
:102E94000313240883160313AF003208F300310828
:102EA400F2003008F1002F08F0003F30F7008030C6
:102EB400F6000030F5000030F4000A168A150A24E2
:102EC4000A168A110318672F682F712FFF30831693
:102ED4000313B7070318B80AFF30B807942F8316F3
:102EE40003133208F3003108F2003008F1002F0810
:102EF400F0004130F7002030F6000030F5000030DB
:102F0400F4000A168A150A240A168A11031C8B2F48
:102F14008C2F942F013083160313B7070318B80AB4
:102F24000030B807831603134208803AFF0080304C
:102F34007F02031D9F2F0D3041020318A22FA32FE0
:102F4400EA2F8316031341080A168A1192200A16DF
:102F54008A11831203134108D5004008D4003F08A6
:102F6400D3003E08D20083160313400883120313D0
:102F7400D900831603133F0883120313D800831662
:102F840003133E0883120313D700831603133D086B
:102F940083120313D6000A168A119D220A168A1177
:102FA40083120313550883160313C00083120313FB
:102FB400540883160313BF008312031353088316A4
:102FC4000313BE0083120313520883160313BD00B8
:102FD400831603133808803AFF0080307F02031DF4
:102FE400F52F0A3037020318FA2F0A128A117A29A8
:102FF4000A128A11CB290A128A11F72F18308A0073
:103004000408840A820700340034003480343F34D6
:10301400003400342034413400340034C8344234A1
:10302400003400347A344434003440341C3446349C
:1030340000345034C33447340034243474344934B1
:103044008034963418344B342034BC34BE344C347D
:1030540028346B346E344E34F9340234153450341D
:10306400EC347834AD346034CA34F23449347134D5
:103074000034003480343F34CD34CC34CC343D344B
:103084000A34D73423343C346F34123483343A341E
:103094001734B734D1343834AC34C53427343734E6
:1030A400BD343734863435349534BF34D634333470
:1030B4007734CC342B3432345F3470348934303444
:1030C400FF34E634DB342E340834E5343C341E3427
:1030D40060344234A2340D340134003400340034FA
:1030E4000A340034003400346434003400340034CE
:1030F400E83403340034003410342734003400340A
:10310400A034863401340034403442340F34003463
:1031140080349634983400340034E134F534053482
:103124000034CA349A343B347034653473346F34A5
:103134003A3420342534303434342E343234663442
:10314400003468347534653476346F3473343A3407
:0C31540020342534303432346934003427
:10319C0073087204710470040319D528D628D82832
:1031AC008030F3060800F100F0013A307102031888
:1031BC00E028E128E92830307102031CE628E728D2
:1031CC00E928F001F00A700C0800F30083120313D5
:1031DC00081173080A168A1526210A168A158312F5
:1031EC00031388150630F2003030F100F10BFC2887
:1031FC00F20BFC2800008312031388110800F8005E
:10320C00F601F7011A2976087807F500750884008D
:10321C0000080A168A1591210A168A150130F6073C
:10322C000318F70A0030F70776087807F5007508D9
:10323C00840083130008031D24292529092908006B
:10324C00F000701C2A292B292F298312031308162E
:10325C003229831203130812F01C35293629382918
:10326C00881639298812701D3C293D293F290817D9
:10327C0040290813F01D432944294629881747295A
:10328C0088130800803083120313E9066D08D500FB
:10329C006C08D4006B08D3006A08D2006908D90006
:1032AC006808D8006708D7006608D6000A168A1185
:1032BC009D220A168A15831203135508E900540837
:1032CC00E8005308E7005208E6000800F401F50195
:1032DC00701C7129722978297208F4070318F50AF1
:1032EC007308F50701300310F20DF30DFF3E031DBB
:1032FC00792901300310F10CF00CFF3E031D8029DD
:10330C0070087104031D8B298C296E297508F10036
:10331C007408F0000800F40074080F39F10071080B
:10332C00F2007408F039F1007108F30083120313F2
:10333C0008157308F10004300310F10CFF3E031D57
:10334C00A22971080A168A1526210A168A158312D3
:10335C00031388150D30F100F10BB22983120313FE
:10336C00881172080A168A1526210A168A158312E4
:10337C00031388150D30F100F10BC22983120313CE
:10338C0088110800700871040319CD29CE29FD2974
:10339C00F501F50ADC2901300310F00DF10DFF3EAB
:1033AC00031DD2290130F4007408F507F11FDF2941
:1033BC00E029D12971087302031DE62970087202F5
:1033CC00031CE929EA29F0297008F2027108031C90
:1033DC00F303F30201300310F10CF00CFF3E031D5C
:1033EC00F1290130F502031DFC29FD29E0297308A0
:1033FC00F1007208F0000800FB01FC01760877046C
:10340C000319092A0A2A412AFD01FD0A182A01304A
:10341C000310F60DF70DFF3E031D0E2A0130FA00C6
:10342C007A08FD07F71F1B2A1C2A0D2A01300310EE
:10343C00FB0DFC0DFF3E031D1D2A77087902031DB1
:10344C00292A76087802031C2C2A2D2A342A76087D
:10345C00F8027708031CF903F9027B1401300310FE
:10346C00F70CF60CFF3E031D352A0130FD02031D3F
:10347C00402A412A1C2A7C08F7007B08F600080029
:10348C00F7007703031D4B2A4C2A6F2A74087F3EE2
:10349C00F5007508FA007A08F50004300310F50CF5
:1034AC00FF3E031D542A7508F6007608F8007A08CA
:1034BC000F39F5007508F90078080A168A15EB2003
:1034CC000A168A1579080A168A15EB200A168A1527
:1034DC00972A02307706031D742A752A972A7408D6
:1034EC00BF3EF5007508FA007A08F50004300310A9
:1034FC00F50CFF3E031D7D2A7508F6007608F800D2
:10350C007A080F39F5007508F90078080A168A153B
:10351C00EB200A168A1579080A168A15EB200A166A
:10352C008A150800831203132308220421042004A3
:10353C000319A12AA22AE52AA901A90AB22A013053
:10354C00A8000310A00DA10DA20DA30DA80BA72A76
:10355C000130A8002808A907A31FB52AB62AA52A56
:10356C0023082702031DC42A22082602031DC42A8D
:10357C0021082502031DC42A20082402031CC72A83
:10358C00C82AD62A2008A4022108031C210FA50250
:10359C002208031C220FA6022308031C230FA702D8
:1035AC0001300310A30CA20CA10CA00CFF3E031DB8
:1035BC00D72A0130A902031DE42AE52AB62A2708D6
:1035CC00A3002608A2002508A1002408A0000800DA
:1035DC00F601F31FF22AF32AFA2AF209F309F20A86
:1035EC000319F30AF601F60AF11FFD2AFE2A032B32
:1035FC00F009F109F00A0319F10A700871040319B2
:10360C00082B092B382BF501F50A172B0130031069
:10361C00F00DF10DFF3E031D0D2B0130F40074086D
:10362C00F507F11F1A2B1B2B0C2B71087302031DB2
:10363C00212B70087202031C242B252B2B2B7008BA
:10364C00F2027108031CF303F30201300310F10CB6
:10365C00F00CFF3E031D2C2B0130F502031D372B04
:10366C00382B1B2B760803193C2B3D2B422BF209D4
:10367C00F309F20A0319F30A7308F1007208F00057
:10368C00080000300A168A1526210A168A151A30E7
:10369C00F500F830F400F40B512BF50B512B000016
:1036AC0003300A168A15EB200A168A150730F50026
:1036BC007D30F400F40B602BF50B602B03300A16F5
:1036CC008A15EB200A168A150F30F5004730F400E6
:1036DC00F40B6E2BF50B6E2B732B03300A168A151D
:1036EC00EB200A168A1502300A168A15EB200A16E8
:1036FC008A1502300A168A15EB200A168A1508302C
:10370C000A168A15EB200A168A1500300A168A1535
:10371C00EB200A168A150C300A168A15EB200A16AD
:10372C008A1500300A168A15EB200A168A150630FF
:10373C000A168A15EB200A168A1508000030FC00C0
:10374C000030FB000030FA000030F90073087204FE
:10375C00710470040319B32BB42B012CFD01FD0A69
:10376C00C42B0130F8000310F00DF10DF20DF30D28
:10377C00F80BB92B0130F8007808FD07F31FC72BA5
:10378C00C82BB72B0130F8000310F90DFA0DFB0D07
:10379C00FC0DF80BCA2B73087702031DDF2B720884
:1037AC007602031DDF2B71087502031DDF2B7008D9
:1037BC007402031CE22BE32BF22B7008F402710849
:1037CC00031C710FF5027208031C720FF6027308CA
:1037DC00031C730FF702791401300310F30CF20C75
:1037EC00F10CF00CFF3E031DF32B0130FD02031D09
:1037FC00002C012CC82B7C08F3007B08F2007A0803
:10380C00F1007908F000080000307005F800003075
:10381C007105F90080307205FA007F307305FB00EA
:10382C007B087A0479047804031D1D2C1E2C262C8D
:10383C000030F3000030F2000030F1000030F000F6
:10384C0000307405F80000307505F90080307605FD
:10385C00FA007F307705FB007B087A047904780442
:10386C00031D392C3A2C422C0030F7000030F600A6
:10387C000030F5000030F400F31F452C462C6A2C68
:10388C000030F8000030F9000030FA008030FB0006
:10389C007008F8027108031C710F552C562CF90294
:1038AC007208031C720F5B2C5C2CFA027308031C4D
:1038BC00730F612C622CFB027B08F3007A08F20078
:1038CC007908F1007808F000F71F6D2C6E2C922C03
:1038DC000030F8000030F9000030FA008030FB00B6
:1038EC007408F8027508031C750F7D2C7E2CF902E8
:1038FC007608031C760F832C842CFA027708031CA1
:10390C00770F892C8A2CFB027B08F7007A08F600CB
:10391C007908F5007808F4008030F3068030F7065B
:10392C0077087302031DA42C76087202031DA42CC5
:10393C0075087102031DA42C740870020318A72CBF
:10394C00A82CAA2C0310AB2C03140800F800780840
:10395C000319B12CB22CC62CF31FB52CB62CC62CCB
:10396C007009FA007109FB007209FC007309FD0073
:10397C00FA0A0319FB0A0319FC0A0319FD0ACE2CD7
:10398C007308FD007208FC007108FB007008FA0057
:10399C007308720471047004031DD52CD62CDF2C13
:1039AC000030F3000030F2000030F1000030F00085
:1039BC00652D9630F4007408F900F12C0130F400F8
:1039CC007408F90701300310FD0CFC0CFB0CFA0C0D
:1039DC00FF3E031DE92CFE307D05031DF62CF72C54
:1039EC00E42C132D0130F4007408F9070130FA07A8
:1039FC00003003180130FB07003003180130FC07BE
:103A0C00003003180130FD0701300310FD0CFC0CD5
:103A1C00FB0CFA0CFF3E031D0B2DFF307D05031D27
:103A2C00182D192DF82C252D0130F9020130F40038
:103A3C000310FA0DFB0DFC0DFD0DF40B1E2DFC1BE4
:103A4C00282D292D2F2D0230790203182E2D2F2DE4
:103A5C001A2D7918322D332D3B2DFF30FA05FF30FE
:103A6C00FB057F30FC05FF30FD050310F90C7908D0
:103A7C00F400F501F601F70118300310F40DF50D03
:103A8C00F60DF70DFF3E031D432D7408FA0475085F
:103A9C00FB047608FC047708FD0478080319572DFD
:103AAC00582D5D2DF31F5B2D5C2D5D2DFD177D08B5
:103ABC00F3007C08F2007B08F1007A08F0000800A3
:103ACC007008F8007108F9007208FA000310790DFB
:103ADC007A0DFB007B0883120313A5002508031D38
:103AEC00782D792D822D0030F3000030F20000305B
:103AFC00F1000030F000222E7408F8007508F9006F
:103B0C007608FA000310790D7A0DFB007B08A400EF
:103B1C002408031D922D932D942D792DF117FF3030
:103B2C00F005FF30F1050030F205F517FF30F40514
:103B3C00FF30F5050030F6050030A3000030A20080
:103B4C000030A1000030A0007F30A502983024077F
:103B5C00F8007808A5021830F8007808A4000130A5
:103B6C00F8000310A00DA10DA20DA30DF80BB72D9D
:103B7C0076087202031DC82D75087102031DC82D2D
:103B8C0074087002031CCB2DCC2DD72D7408F002B9
:103B9C007508031C750FF1027608031C760AF202F5
:103BAC00201401300310F00DF10DF20DFF3E031D3A
:103BBC00D82D0130A402031DE42DE52DB52DA51F34
:103BCC00E82DE92D032E2508803A973E0318EF2D9A
:103BDC00F02DF12D792D01300310A30CA20CA10CAA
:103BEC00A00CFF3E031DF22D0130F8007808A5074C
:103BFC00031D012E022EF12D1A2E18302502031C46
:103C0C00082E092E152E792D0130F8000310A00D69
:103C1C00A10DA20DA30DF80B0C2E0130A502250849
:103C2C00031D192E1A2E0A2E2308F3002208F20067
:103C3C002108F1002008F000080083120313450846
:103C4C008039C6004608CF004508C6004607C700A5
:103C5C004708D600C41F332E342E352E5614560862
:103C6C000319392E3A2E4A2E560A031D3E2E3F2E8C
:103C7C00472E0030C5000030C4000030C3000030B7
:103C8C00C200C417C501522E0030C5000030C4005C
:103C9C000030C3000030C20041088039C60046081D
:103CAC00CF064108C6004607C7004708D700C01F0B
:103CBC00602E612E622E571457080319662E672E3C
:103CCC00772E570A031D6B2E6C2E742E0030C100FC
:103CDC000030C0000030BF000030BE00C017C10172
:103CEC007F2E0030C1000030C0000030BF0000301B
:103CFC00BE00410840043F043E04031D862E872E5F
:103D0C00A02E0030C5000030C4000030C3000030CD
:103D1C00C2008030C4047F30C5044F08C60046087A
:103D2C00C5044508C1004408C0004308BF00420850
:103D3C00BE00FF2F5608031DA42EA52EAE2E00305C
:103D4C00C1000030C0000030BF000030BE00FF2FAB
:103D5C005608C600C7014708C90057084602C800E4
:103D6C00031CC90348087F3ED00049080318013ED4
:103D7C00003ED1004508CE004408CD004308CC00DD
:103D8C004208CB000030C5000030C4000030C30036
:103D9C000030C2000030D5000030D4000030D30019
:103DAC000030D200D701242F57080319DE2EDF2E46
:103DBC00FF2E0130C6000310CB0DCC0DCD0DCE0D5A
:103DCC00C60BE12E0130C6000310C20DC30DC40D8D
:103DDC00C50DC60BEA2ED51FF42EF52EF62E421469
:103DEC000130C6000310D20DD30DD40DD50DC60B6A
:103DFC00F82E41084E02031D0D2F40084D02031DE5
:103E0C000D2F3F084C02031D0D2F3E084B02031CC7
:103E1C00102F112F202F55173E08CB023F08031CE3
:103E2C003F0FCC024008031C400FCD024108031C7D
:103E3C00410FCE020130C6004608D7071A30570290
:103E4C00031C292F2A2FDA2E4E084D044C044B0448
:103E5C000319312F322F512F5214512F0130C6001C
:103E6C000310C20DC30DC40DC50DC60B362FD51FC7
:103E7C00402F412F422F42140130C6000310D20DA7
:103E8C00D30DD40DD50DC60B442FFF30D00703181E
:103E9C00D10AFF30D107C41F542F552F342FD7010F
:103EAC00D51F592F5A2F762FFF305205C600FF30E1
:103EBC005305C700FF305405C8007F305505C900B5
:103ECC00490848044704460403196D2F6E2F712FBF
:103EDC00D701D70A762F421C742F752F762F6E2F91
:103EEC00570803197A2F7B2FAC2F0130C2070030F3
:103EFC0003180130C307003003180130C407003029
:103F0C0003180130C507451C8C2F8D2FAC2F420890
:103F1C00C6004308C7004408C8004508C900013062
:103F2C00CA00490DC90CC80CC70CC60CCA0B972F7C
:103F3C004908C5004808C4004708C3004608C20029
:103F4C000130D0070318D10A0030D1075108803A4C
:103F5C00FF0080307F02031DB52FFF305002031C81
:103F6C00B82FB92FC72FFF3083120313D0000030A6
:103F7C00D1000030C5000030C4000030C300003058
:103F8C00C200831203135108803AFF0080307F0275
:103F9C00031DD22F013050020318D52FD62FE32F3B
:103FAC0083120313D001D1010030C5000030C400CE
:103FBC000030C3000030C200CF018312031350083D
:103FCC00C6004608D600561CEC2FED2FEF2FC41759
:103FDC00F32F7F30C6004608C4055608C6000310F0
:103FEC00460CC7004708C5004F08C6004608C50464
:0C3FFC00972E0800FF3FFF3FFF3FFF3FF4
:02400E007A3FF7
:00000001FF
