:020000040000FA
:100000000C9463010C9494010C9494010C9494014D
:100010000C9494010C9494010C9494010C9494010C
:100020000C9494010C9494010C9494010C949401FC
:100030000C9494010C9494010C9494010C949401EC
:100040000C9494010C9494010C9494010C949401DC
:100050000C9494010C9494010C9494010C943B081E
:100060000C9494010C9405080C94DB070C949401F7
:100070000C9494010C9494010C9494010C949401AC
:100080000C9494010C9494010C9494010C9494019C
:100090000C9494010C9494010C9494010C9494018C
:1000A0000C9494010C9494010C9494010C9494017C
:1000B0000C9494010C9494010C9494010C9494016C
:1000C0000C9494010C9494010C9494010C9494015C
:1000D0000C9494010C9494010C9494010C9494014C
:1000E0000C9494010C9478030C940D100C945F0301
:1000F0000C9499030C9490030C9494030C9459035E
:100100000C9462100C94DA0F0C94E90F0C942110EB
:100110000C9405060C94D50F0C9405100C942A022F
:100120000C943A100C94FC030C940E030C9463038F
:100130000C948C030C9482030C946E030C94660252
:100140000C9486030C94F30F0C9407020C944E103D
:100150000C94B3020C9458100C94FD0F0C943802BC
:100160000C949E030C94DF0F0C943C040C949A03A3
:100170000C946B030C947E030C9444100C94670352
:100180000C9474030C94CB030C946C100C94171007
:100190000C9406060C9485080C942B100C945C07A8
:1001A0000C94160200002100240027002A002D00D4
:1001B0003000330001010000040107010A010000C2
:1001C0002200250028002B002E00310034000201FF
:1001D0000000050108010B0100000A0B02090C0DCB
:1001E0000E080703040100000000000000000000EA
:1001F00000000000000000000000000000000000FF
:1002000000000000121110000000000000000000BB
:1002100000000000000000000000000000000000DE
:1002200020002300260029002C002F0032000001AE
:100230000000030106010901050505050705080879
:100240000808020202020A0A080804040404010160
:100250000101010101010303030303030303040775
:1002600007070C0C0C0C0C0C0C0C0202020206060C
:100270000606060606060B0B0B0B0B0B0B0B0102FF
:1002800010202008081020401020408002010201A8
:100290000804020101020408102040808040201060
:1002A00008040201800402018040201008040201B9
:1002B0000804020101020408102040800102040821
:1002C00010204080850811241FBECFEFD1E2DEBF91
:1002D000CDBF00E00CBF12E0A0E0B2E0E8E0F6E243
:1002E00000E00BBF02C007900D92A23BB107D9F707
:1002F00024E0A2EBB2E001C01D92A835B207E1F7FD
:1003000011E0C3E6D1E000E006C021970109802F8B
:10031000FE010E94FA12C236D10780E00807A9F751
:100320000E94F1090C9402130C94000096E0899F3E
:10033000D0011124AF52BC4F90967C936E935F977F
:1003400091E091969C939197E0913E04F0913F0447
:1003500090913D04992339F0309751F0811108C0F4
:100360008091ED031994309719F05C968C91FACF37
:10037000089580917B00877F80937B0080E4809349
:100380007C0080917A00806480937A0080917A006A
:1003900086FDFCCF80917800909179000895CF92EE
:1003A000DF92EF92FF92CF93DF93B091C503A0E06D
:1003B0008111AB2F8091C60390E0880F991FAC018B
:1003C000425E5D4FC090CB03D090CC03E090CD0354
:1003D000F090CE0330E020E0FA01C591D491E8819D
:1003E000B90190E080E0EB23EA130AC02F5F3F4F92
:1003F0006C157D058E059F0578F36FEF7FEFCB01C0
:10040000DF91CF91FF90EF90DF90CF900895FC01A6
:10041000538D448D252F30E0842F90E0821B930B69
:10042000541710F0CF96089501970895FC01918D0F
:10043000828D981761F0A28DAE0FBF2FB11D5D9612
:100440008C91928D9F5F9F73928F90E008958FEFB4
:100450009FEF0895FC01918D828D981731F0828D68
:10046000E80FF11D858D90E008958FEF9FEF0895BF
:10047000FC01918D228D892F90E0805C9F4F821B23
:1004800091098F7399270895FC01A48DA80FB92FA6
:10049000B11DA35ABF4F2C91848D90E001968F73AC
:1004A0009927848FA689B7892C93A089B1898C91CB
:1004B000837080648C93938D848D981306C002881A
:1004C000F389E02D80818F7D80830895EF92FF92E4
:1004D0000F931F93CF93DF93EC0181E0888F9B8D67
:1004E0008C8D98131AC0E889F989808185FF15C021
:1004F0009FB7F894EE89FF896083E889F989808144
:100500008370806480839FBF81E090E0DF91CF9112
:100510001F910F91FF90EF900895F62E0B8D10E034
:100520000F5F1F4F0F731127E02E8C8D8E110CC0A3
:100530000FB607FCFACFE889F989808185FFF5CFEE
:10054000CE010E944402F1CFEB8DEC0FFD2FF11D87
:10055000E35AFF4FF0829FB7F8940B8FEA89FB892B
:1005600080818062CFCFCF93DF93EC01888D882389
:10057000B9F0AA89BB89E889F9898C9185FD03C006
:10058000808186FD0DC00FB607FCF7CF8C9185FFEB
:10059000F2CF808185FFEDCFCE010E944402E9CFEA
:1005A000DF91CF91089581ED92E00E94380221E021
:1005B000892B09F420E0822F089580E090E0892BB8
:1005C00029F00E94D30281110E94000080E090E097
:1005D000892B49F080E090E0892B29F00E940000EF
:1005E00081110E94000080E090E0892B49F080E0BA
:1005F00090E0892B29F00E94000081110E940000E8
:1006000080E090E0892B49F080E090E0892B29F090
:100610000E94000081110C9400000895AF92BF92D7
:10062000CF92DF92EF92FF920F931F93CF93DF93BE
:100630006C017B018B01040F151FEB015E01AE18ED
:10064000BF08C017D10759F06991D601ED91FC910F
:100650000190F081E02DC6011995892B79F7C5012C
:10066000DF91CF911F910F91FF90EF90DF90CF908E
:10067000BF90AF9008958150823108F05AC0E82FA2
:10068000F0E08827E95BFC4F8F4F0C94FA12670368
:100690006B0359035F03630399036E0374037803C9
:1006A0007E03820386038C039003990394039A03C9
:1006B0009E03809180008F778093800008958091C1
:1006C00080008F7DF9CF80918000877FF5CF84B542
:1006D0008F7784BD089584B58F7DFBCF8091B00066
:1006E0008F778093B00008958091B0008F7DF9CF0F
:1006F000809190008F778093900008958091900072
:100700008F7DF9CF80919000877FF5CF8091A000F9
:100710008F778093A00008958091A0008F7DF9CFFE
:100720008091A000877FF5CF809120018F77809303
:1007300020010895809120018F7DF9CF80912001C3
:10074000877FF5CFCF93DF93282F30E0F901E85270
:10075000FE4F8491F901E258FD4FD491F901E85C14
:10076000FD4FC491CC23A1F081110E943B03EC2FDB
:10077000F0E0EE0FFF1FE25EFD4FA591B491EC910A
:10078000ED2381E090E009F480E0DF91CF910895BE
:1007900080E090E0FACF862F0C94A2031F93CF93B2
:1007A000DF93282F30E0F901E852FE4F8491F901E0
:1007B000E258FD4FD491F901E85CFD4FC491CC2380
:1007C000A9F0162F81110E943B03EC2FF0E0EE0FF1
:1007D000FF1FE254FE4FA591B4918FB7F894EC91AE
:1007E000111108C0D095DE23DC938FBFDF91CF912C
:1007F0001F910895DE2BF8CF862F642F0C94CE0323
:10080000CF93DF9390E0FC01E258FD4F2491885C88
:100810009D4FFC0184918823C9F090E0880F991FB7
:10082000FC01EC55FE4FA591B491FC01E254FE4F42
:10083000C591D49161110DC09FB7F8948C9120950A
:1008400082238C938881282328839FBFDF91CF91B7
:100850000895623051F49FB7F8943C91822F8095AF
:1008600083238C93E8812E2BEFCF8FB7F894EC91F4
:100870002E2B2C938FBFEACF862F642F0C9400046D
:100880003FB7F8948091B7029091B802A091B90255
:10089000B091BA0226B5A89B05C02F3F19F001966A
:1008A000A11DB11D3FBFBA2FA92F982F8827BC01CA
:1008B000CD01620F711D811D911D42E0660F771FF2
:1008C000881F991F4A95D1F708958F929F92AF92F2
:1008D000BF92CF92DF92EF92FF924B015C010E9498
:1008E00040046B017C010E9440046C197D098E0953
:1008F0009F09683E734081059105A8F321E0821AA3
:100900009108A108B10888EEC80E83E0D81EE11C4A
:10091000F11C81149104A104B10429F7FF90EF9018
:10092000DF90CF90BF90AF909F908F9008952FB79A
:10093000F8946091B3027091B4028091B5029091E5
:10094000B6022FBF08950F931F93CF93DF93C82F45
:10095000D62F86E0C89FF0011124EF52FC4F11A260
:10096000878D90A181309105F1F058F0823091058A
:10097000F1F1039709F440C0DF91CF911F910F91DE
:1009800008956623C9F361E070E08C2F0E94960100
:100990000E9497046093290470932A0480932B0487
:1009A00090932C04E9CF0E949704009129041091A0
:1009B0002A0420912B0430912C04AB01BC01401B74
:1009C000510B620B730B80913B0490913C04B0E09F
:1009D000A0E084179507A607B70748F462E070E027
:1009E0008C2FDF91CF911F910F910C94960163E0B2
:1009F00070E0D111C1CFF4CF70E060E0F1CFCF92C1
:100A0000DF92EF92FF920F931F93CF93DF93CDB7B7
:100A1000DEB7C054D1400FB6F894DEBF0FBECDBFD5
:100A20000E9497040091C7031091C8032091C90345
:100A30003091CA036B017C01C01AD10AE20AF30AA1
:100A400097018601003D17402105310590F4809102
:100A5000CF03C05CDE4F0FB6F894DEBF0FBECDBF34
:100A6000DF91CF911F910F91FF90EF90DF90CF908A
:100A700008956093C7037093C8038093C90390934C
:100A8000CA031092C2031092C1031092C0031092C5
:100A9000BF031092BE0362E08091C3030E94000472
:100AA00061E070E080E090E00E94650461E0809188
:100AB000C3030E94000460E08091C3030E94CE0340
:100AC0008091C4038551823020F58BE291E101973A
:100AD000F1F762E08091C3030E9400048091D0038B
:100AE00090E08230910538F0880F991F880F991F88
:100AF00005970197F1F7F89480E00E94CF016F3FCE
:100B00007F4F8F4F9F4F61F41092CF03789480E016
:100B1000A0CF64E170E080E090E00E946504D9CF4E
:100B200081E00E94CF016F3F7F4F8F4F9F4F61F356
:100B30008E010F5F1F4F6E012FEBC21A2EEFD20AEC
:100B4000780180E00E94CF01F70160837183828386
:100B5000938381E00E94CF01F701648375838683CC
:100B60009783F8E0EF0EF11CEC14FD0451F7789434
:100B700030E020E0F801C080D180E280F380448141
:100B8000558166817781FFEFCF16DF06EF06FF06FE
:100B900031F04F3F8FEF58076807780719F410922C
:100BA000CF03B5CFF90183E0F595E7958A95E1F795
:100BB000E254FC4F8081880FC416D506E606F7067E
:100BC00010F180832F5F3F4F085F1F4F28323105A0
:100BD00089F64091C2032091BE038091BF03280F84
:100BE0003327331F8091C003280F311D8091C1032B
:100BF000820F932F911D99274817190681F681E0DE
:100C00008093CF0326CF8160DCCF089590E080E011
:100C10000895CF93DF93EC0160E08E810E94CE03B4
:100C200061E08E810E94CE0360E08E810E94CE033F
:100C30008BE891E00197F1F7DF91CF910895CF9282
:100C4000DF92EF92FF920F931F93CF93DF936C018C
:100C50007C0187E0E80EF11CD0E0C0E0062F10E038
:100C6000B8010C2E02C0759567950A94E2F7617081
:100C7000F70181917F010E94CE032196C430D105F6
:100C800079F7C601DF91CF911F910F91FF90EF90FF
:100C9000DF90CF900C940906CF92DF92EF92FF92F3
:100CA0000F931F93CF93DF93EC01F62E642F8C816B
:100CB0000E94CE038D818F3F19F060E00E94CE0329
:100CC0000F2D10E08F8584FF25C06E0187E0C80ED0
:100CD000D11CF12CE12CB8010E2C02C07595679542
:100CE0000A94E2F76170F60181916F010E94CE03D0
:100CF000FFEFEF1AFF0A88E0E816F10461F7CE0172
:100D0000DF91CF911F910F91FF90EF90DF90CF90E7
:100D10000C940906B80184E0759567958A95E1F70A
:100D2000CE010E941F066F2DCE01DF91CF911F9142
:100D30000F91FF90EF90DF90CF900C941F0640E052
:100D4000682F80E494E00C944C0681E00E949F069A
:100D50008BE39FE10197F1F70895CF93DF93823002
:100D600029F490914F04986090934F04809353041A
:100D70001092540480E48093550480E180935604DB
:100D800080E58093570461E0809144040E94000450
:100D9000809145048F3F19F061E00E94000461E0FA
:100DA000809146040E940004C0E4D4E09E012054D7
:100DB000344080914F0484FD0BC084E090E0219684
:100DC0002817390744F461E08E810E940004EECFB9
:100DD00088E090E0F4CF8BE39DE00197F1F760E0CD
:100DE000809144040E94CE0360E0809146040E94FA
:100DF000CE03809145048F3F19F060E00E94CE033E
:100E000080914F0484FD34C063E080E494E00E944C
:100E10001F06CBE4D6E4CE010197F1F763E080E44E
:100E200094E00E941F062197F1F763E080E494E0CC
:100E30000E941F0683E592E00197F1F762E080E4EB
:100E400094E00E941F0680914F0480620E949F06DA
:100E500084E0809350048CE00E949F060E94A506C7
:100E600082E08093510486E0DF91CF910C949F063D
:100E700080620E949F068BE496E40197F1F78091CF
:100E80004F0480620E949F0683E592E00197F1F78C
:100E900080914F0480620E949F06D5CF90915304A9
:100EA000891710F08FEF890FE82FF0E0E05CFB4F1F
:100EB000848980680C949F0641E00E944C0681E082
:100EC00090E00895FC0101900020E9F73197AF010F
:100ED000481B590BBC0180E494E00C940E038F92E4
:100EE0009F92AF92BF920F931F93CF93DF93CDB793
:100EF000DEB7A1970FB6F894DEBF0FBECDBF19A223
:100F0000423008F44AE08E010F5D1F4F842E912C71
:100F1000B12CA12CA50194010E94D812E62FB90191
:100F2000CA01EA30F4F4E05DD801EE938D01232B81
:100F3000242B252B79F790E080E0109719F0CD0154
:100F40000E946207A1960FB6F894DEBF0FBECDBF18
:100F5000DF91CF911F910F91BF90AF909F908F9095
:100F60000895E95CE1CFCF92DF92EF92FF926B019F
:100F70007C0141E06DE280E494E00E944C0666272B
:100F80007727CB016C197D098E099F094AE00E94E1
:100F90006F070196FF90EF90DF90CF900895BC010E
:100FA000990F880B990B97FD0C94B3074AE00C94AA
:100FB0006F070C9462071F920F920FB60F921124C5
:100FC0000BB60F922F933F934F935F936F937F9343
:100FD0008F939F93AF93BF93EF93FF9381ED92E035
:100FE0000E944402FF91EF91BF91AF919F918F9129
:100FF0007F916F915F914F913F912F910F900BBE19
:101000000F900FBE0F901F9018951F920F920FB662
:101010000F9211240BB60F922F938F939F93EF9300
:10102000FF93E091E102F091E2028081E091E7021A
:10103000F091E80282FD1DC090818091EA028F5FED
:101040008F732091EB02821741F0E091EA02F0E009
:10105000EF52FD4F958F8093EA02FF91EF919F91A0
:101060008F912F910F900BBE0F900FBE0F901F907E
:1010700018958081F2CF1F920F920FB60F92112414
:101080002F933F938F939F93AF93BF938091B3021E
:101090009091B402A091B502B091B6023091B20223
:1010A00023E0230F2D3758F50196A11DB11D209384
:1010B000B2028093B3029093B402A093B502B093AE
:1010C000B6028091B7029091B802A091B902B09196
:1010D000BA020196A11DB11D8093B7029093B80288
:1010E000A093B902B093BA02BF91AF919F918F9133
:1010F0003F912F910F900FBE0F901F90189526E8EB
:10110000230F0296A11DB11DD2CF0F931F931092F2
:10111000D4021092D30288EE93E0A0E0B0E0809376
:10112000D5029093D602A093D702B093D8028CE157
:1011300092E09093D2028093D10285EC90E090935C
:10114000DE028093DD0284EC90E09093E0028093D5
:10115000DF0280EC90E09093E2028093E10281EC68
:1011600090E09093E4028093E30282EC90E090930D
:10117000E6028093E50286EC90E09093E80280938B
:10118000E7021092EA021092EB021092EC02109227
:10119000ED02109243041092420488E392E090938F
:1011A00041048093400488E0809344048FEF80934F
:1011B000450489E0809346048AE0809347048BE0ED
:1011C000809348048CE0809349048DE080934A0426
:1011D00010924B0410924C0410924D0410924E0445
:1011E00010924F0481E00E94AD061092D30310923A
:1011F000D7031092D6031092D8038EE292E0909318
:10120000D2038093D103EDEEF3E089E294E0108203
:1012100014821382158236968E179F07C1F784E0D9
:1012200092E0909334048093330480E092E09093B2
:1012300036048093350484E0809337048093380427
:1012400088E092E090933204809331048AE090E049
:1012500090933A048093390484EF91E090933C0496
:1012600080933B0410923F0410923E0410922D0490
:1012700010922E0410922F041092300410923D040C
:101280008EE08093C3038BE08093C403ECE8F2E02C
:10129000E491E093C503E6E4F2E0E491E093C60351
:1012A00080E89EE3A0E0B0E08093CB039093CC0372
:1012B000A093CD03B093CE0382E793E0909399037C
:1012C0008093980386E793E0909397038093960327
:1012D0008EE693E090939B0380939A031092BC0355
:1012E0001092B4031092B5031092B6031092B70394
:1012F00080E090E0AFE7B3E48093B8039093B90344
:10130000A093BA03B093BB0384E690E0A0E0B0E002
:101310008093B0039093B103A093B203B093B3034F
:10132000109293031092920381E090E090939503C2
:10133000809394038093BD0380E090E0A0E2B1E449
:1013400080937A0390937B03A0937C03B0937D03F7
:1013500040E050E060E87FE340937E0350937F03DA
:101360006093800370938103109282031092830331
:1013700010928403109285038093860390938703D1
:10138000A0938803B09389038DEC9CECACECBDE397
:1013900080938A0390938B03A0938C03B0938D0367
:1013A00010928E0310928F0310929003109291036B
:1013B0000E9497040091B0031091B1032091B203F1
:1013C0003091B303601B710B820B930B60939C03F2
:1013D00070939D0380939E0390939F031F910F91A1
:1013E0000895CF93DF93CDB7DEB72E970FB6F8945D
:1013F000DEBF0FBECDBF789484B5826084BD84B556
:10140000816084BD85B5826085BD85B5816085BDFF
:1014100080916E00816080936E00109281008091B7
:10142000810082608093810080918100816080933F
:101430008100809180008160809380008091B10064
:1014400084608093B1008091B00081608093B0008F
:1014500080919100826080939100809191008160E1
:1014600080939100809190008160809390008091A2
:10147000A10082608093A1008091A100816080938F
:10148000A1008091A00081608093A0008091210143
:1014900082608093210180912101816080932101EC
:1014A0008091200181608093200180917A00846086
:1014B00080937A0080917A00826080937A00809194
:1014C0007A00816080937A0080917A0080688093AE
:1014D0007A001092C10062E08091C3030E94000470
:1014E0000E949704605D7740810991096093C7036A
:1014F0007093C8038093C9039093CA0387E38093D2
:10150000D00382E00E94AD0660E081E10E94000409
:101510000E94B901BC01990F880B990B0E94B1116F
:1015200020E030E040EA5BE30E94661220E030E019
:1015300048EC52E40E9466126093CB027093CC0296
:101540008093CD029093CE026093760370937703DD
:10155000809378039093790380E090E0A8E1B2E46F
:1015600080936E0390936F03A0937003B093710305
:101570008091BC03811149C0E0919803F0919903D7
:10158000C080D180E280F380C092A003D092A103FA
:10159000E092A203F092A303E0919603F0919703E7
:1015A00080819181A281B3818093A4039093A5034C
:1015B000A093A603B093A7038090B8039090B903BB
:1015C000A090BA03B090BB03A5019401C701B60176
:1015D0000E94611218164CF48092A0039092A1030D
:1015E000A092A203B092A30310C08090B403909085
:1015F000B503A090B603B090B703A5019401C7014D
:10160000B6010E94741187FDE7CF81E08093BC038F
:1016100081E10E94A2039093D0028093CF020197B0
:1016200009F008C280E00E944E0780E492E00E9428
:10163000D90781E00E944E078BE492E00E94D9070F
:101640000E94A50680E00E944E0785E592E00E9478
:10165000D907812C912C540183947DE0272E74E0CE
:10166000372E66246A94762C81E00E944E0721E092
:1016700020933D040E94970400912D0410912E04A4
:1016800020912F0430913004AB01BC01401B510B61
:10169000620B730B8091390490913A04B0E0A0E0A2
:1016A00084179507A607B70710F7198280913704AA
:1016B0003981381770F4E0913304F0913404E30F6A
:1016C000F11D62E080810E94000449814F5F4983DF
:1016D000EDCF512C80913804581608F072C0052DBA
:1016E00010E0E0913504F0913604E00FF11F61E065
:1016F00080810E940004E0913504F0913604E00FEF
:10170000F11F60E080810E94CE03D501C401052C49
:1017100004C0880F991FAA1FBB1F0A94D2F76C013F
:101720007C01E094F094412C80913704481690F5A8
:10173000842D90E09A838983E0913304F0913404FE
:10174000DC01EA0FFB1F80810E94A203E981FA817C
:101750003496FA83E983892B61F4EE0FFF1FEF5271
:10176000FC4F808191818C299D29918380834394B2
:10177000DBCF29813A81220F331F2F523C4F3A830E
:101780002983D9018D919C9111978E219F218D9351
:101790009C93EDCFE0913504F0913604E00FF11FFA
:1017A00061E080810E94CE038091350490913604DF
:1017B000080F191F60E0F80180810E940004539413
:1017C00089CF01ED13E01A830983A981BA815F965D
:1017D0008D919C919097892B49F45C961C925C9713
:1017E0005E967C926E925D9791961C92E981FA8149
:1017F0003696FA83E9832E163F0639F7F12C80914D
:101800003704F81608F053C0E12CCF2CD12CCC0CA7
:10181000DD1C960127523C4F690120913804E216E5
:1018200008F043C0D6016D917C910E2C02C07695D4
:1018300067950A94E2F7F29E900111242E0D311D56
:10184000E1EDF3E080E0458D568D2417350709F46E
:10185000DCC48F5F36968A30B1F760FF24C0E1EDBB
:10186000F3E090E080E0448D411118C0E091310434
:10187000F0913204E20FF31F4081B6E0B89FF0010F
:10188000B99FF00D1124EF52FC4F448F368F258FF6
:1018900010A2178E61E00E94A30405C0019636963F
:1018A0008A30910501F7E394B8CFF394A8CFF12CD7
:1018B000F80181A18111F82E0A5F1F4F29813A8119
:1018C00020173107A9F70E94970460932D047093A5
:1018D0002E0480932F0490933004FF2009F4C7CE88
:1018E0008091F203882309F4C2CE8091F003909195
:1018F000F103019709F0BBCE8091ED03882309F431
:10190000B6CE082E000C990B8A32910509F04BC017
:1019100082E692E00E94D90781E00E944E07109271
:10192000C2021092C1028091BB029091BC0201964A
:101930009093BC028093BB0202970CF495CE0E9458
:10194000A50680E00E944E078091CF029091D002C0
:10195000019709F023C10E94A50680E00E944E076E
:1019600087E892E00E94D9078091C9029091CA024B
:101970000E94CF0768EE73E080E090E00E9465046B
:101980000E94FF04882351F08091C4038C3009F435
:10199000E3C008F05EC08B3009F479C060E070E00D
:1019A00080EC9FE79FC09C0120533109E091C10268
:1019B000F091C202EE0FFF1FE354FD4F31832083ED
:1019C000B901032E000C880B990B37FF2FC00E9422
:1019D000B3078091C1029091C20201969093C20216
:1019E0008093C102029709F09ECF2091BD023091F1
:1019F000BE024AE0429FC001439F900D11242091F6
:101A0000BF023091C002820F931F9093CA0280934D
:101A1000C9029C01225031093093C6022093C502AD
:101A200002969093C4028093C3027DCF4AE00E9445
:101A30006F07CFCF80E00E944E0785E792E00E94BB
:101A4000D90781E00E944E078CE792E00E94D907F7
:101A500076CF8551823008F0A1CFB091C003B98311
:101A60006B2F70E0762F662766277F778091C10302
:101A7000682B90E080E00E94AF112DEC3CEC4CEC28
:101A80005DE30E946612E981E7FF2CC085C060918A
:101A9000C00370E090E080E00E94AF116B017C0118
:101AA0005091C103598357FF0AC0AC019B0160E00C
:101AB00070E080E89FEB0E9407116B017C01898137
:101AC0008F708983682F70E090E080E00E94B111F0
:101AD0002DEC3CEC4CEC5DE30E946612A7019601F4
:101AE0000E9408110E9479117093C8026093C70286
:101AF00081E00E944E0786E992E00E94D90780911A
:101B0000C7029091C8020E94CF0764EF71E080E0A5
:101B100090E00E9465042091C7023091C8023A8388
:101B200029838091C5029091C6028217930724F001
:101B300061E08FE00E94CE038091C3029091C402C5
:101B400049815A814817590724F060E08FE00E94CC
:101B5000CE030E94DD02F3CE9091C0039983692FDA
:101B600070E090E080E00E94AF116B017C01609119
:101B7000C1036F7070E090E080E00E94B1112DEC25
:101B80003CEC4CEC5DE30E946612A70196010E94BA
:101B90000811A981A7FFA6CF9058A4CF0E94B90130
:101BA000BC01990F880B990B0E94B11120E030E025
:101BB00040EA5BE30E94661220E030E048EC52E429
:101BC0000E9466126093CB027093CC028093CD0288
:101BD0009093CE026093760370937703809378039B
:101BE000909379038091BC03882309F456C10E9425
:101BF000970469877A878B879C8780919C03909153
:101C00009D03A0919E03B0919F0349855A856B85E2
:101C10007C85481B590B6A0B7B0B8091B00390911C
:101C2000B103A091B203B091B303481759076A07F3
:101C30007B0708F432C1E0919603F091970380810D
:101C40009181A281B3818D839E83AF83B887E09118
:101C50009A03F0919B039C01AD01608171818281A7
:101C600093810E9407114B015C012091A4033091E4
:101C7000A5034091A6035091A7036D817E818F81BA
:101C800098850E9407116B017C0120918A03309195
:101C90008B0340918C0350918D03C501B4010E94C8
:101CA00066122091A0033091A1034091A2035091AC
:101CB000A3030E9408112B013C014092A003509203
:101CC000A1036092A2037092A3033090BD03311070
:101CD0002FC0209186033091870340918803509153
:101CE000890329833A834B835C83C701B6010E9431
:101CF00066129B01AC01C301B2010E9407116093FF
:101D0000A0037093A1038093A2039093A30369811E
:101D10007A818B819C819058A70196010E9466125E
:101D20006093A8037093A9038093AA039093AB03D5
:101D30004090A0035090A1036090A2037090A30371
:101D40001091B8033091B9033E874091BA034D8793
:101D50000091BB03212F502FC301B2010E946112D9
:101D600018160CF0DBC0812F9E85AD85B02F8093B7
:101D7000A0039093A103A093A203B093A303412CCB
:101D8000512C32013320B1F020918603309187032A
:101D90004091880350918903C501B4010E946612E5
:101DA0002B013C014092A8035092A9036092AA0320
:101DB0007092AB0380908E0390908F03A09090035D
:101DC000B0909103A5019401C701B6010E9466126B
:101DD0009B01AC016091A0037091A1038091A203CB
:101DE0009091A3030E940711A30192010E94081180
:101DF0002B013C01C501B4019058A70196010E9436
:101E000066126093AC037093AD038093AE0390931E
:101E1000AF039201A301612F7E858D85902F0E94D3
:101E2000741187FD16C01091B4033091B5033E873D
:101E30004091B6034D870091B703212F502FB20177
:101E4000C3010E94741187FD04C0142D5E866D8647
:101E5000072DE0919803F0919903812F9E85AD8520
:101E6000B02F80839183A283B3838D819E81AF81C4
:101E7000B8858093A4039093A503A093A603B09381
:101E8000A70329853A854B855C8520939C03309375
:101E90009D0340939E0350939F0360917203709142
:101EA000730380917403909175030E9479116B0103
:101EB0008B0161E080E10E940004C114D10409F0AB
:101EC0004EC060E080E10E94CE030E94A50680E043
:101ED0000E944E0786E992E00E94D907C090CB028B
:101EE000D090CC02E090CD02F090CE02A7019601F6
:101EF000C701B6010E94D312882309F4F2C084EA14
:101F000092E00E94620780EB92E00E94D90768EE9F
:101F100073E080E090E00E9465041BCE8091B403E2
:101F20009091B503A091B603B091B70389839A83CA
:101F3000AB83BC839C01AD01C301B2010E9474114B
:101F400087FF1DCF29813A814B815C812093A003BB
:101F50003093A1034093A2035093A30310CF0F3FEC
:101F6000110511F461E0AECFE8EEF1E08491EFEFFE
:101F7000E80FE23108F0B0C0F0E08827ED53F04FF1
:101F80008F4F0C94FA12D50FDA0FDF0FE90FF30F12
:101F90006C10FD0F05100D10171021102B103A10AA
:101FA00044106C104E105810621084B5806884BDC7
:101FB000C7BC8BCF84B5806284BDC8BC86CF8091FE
:101FC0008000806880938000D0928900C092880051
:101FD0007CCF80918000806280938000D0928B00C3
:101FE000C0928A0072CF80918000886080938000C8
:101FF000D0928D00C0928C0068CF8091B000806834
:102000008093B000C092B30060CF8091B000806236
:102010008093B000C092B40058CF80919000806847
:1020200080939000D0929900C09298004ECF8091FA
:102030009000806280939000D0929B00C0929A00A2
:1020400044CF80919000886080939000D0929D0052
:10205000C0929C003ACF8091A00080688093A0003D
:102060008091A0008F7B8093A000D092A900C092A5
:10207000A8002BCF8091A00080628093A000D09216
:10208000AB00C092AA0021CF8091A000886080930D
:10209000A000D092AD00C092AC0017CF809120017B
:1020A000806880932001D0922901C09228010DCF31
:1020B00080912001806280932001D0922B01C092F8
:1020C0002A0103CF80912001886080932001D09263
:1020D0002D01C0922C01F9CE003811050CF042CF31
:1020E000F0CE46015701E894B7F82FEF3FEF4FE7E6
:1020F0005FE7C501B4010E94D31281110DC02FEF1B
:102100003FEF4FE75FE7C501B4010E947411181655
:102110001CF488EA92E0F5CE2FEF3FEF4FE75FE443
:10212000C701B6010E94611218161CF48CEA92E0F5
:10213000E8CE2FEF3FEF4FE75FECC701B6010E94FB
:10214000741187FDF3CF20E030E0A901C701B6018B
:102150000E94741187FF0AC041E06DE280E494E0C0
:102160000E944C06F7FAF094F7F8F0942AE037ED65
:1021700043EA5BE3C701B6010E9408114B015C0111
:102180000E9480116B017C010E94AF119B01AC0188
:10219000C501B4010E9407114B015C014AE0C7016F
:1021A000B6010E946F0741E06EE280E494E00E9475
:1021B0004C0620E030E040E251E4C501B4010E9449
:1021C00066124B015C010E9480116B01F12CE12C25
:1021D0004AE0C701B6010E946F07C701B6010E941D
:1021E000AF119B01AC01C501B4010E94071120E0B1
:1021F00030E040E251E40E9466120E94801190E0BB
:1022000080E04AE00E946F077ECE617044CB505858
:10221000BB27AA270E941F110C9427120E94191293
:1022200038F00E94201220F039F49F3F19F426F470
:102230000C9416120EF4E095E7FB0C941012E92FA3
:102240000E94381258F3BA1762077307840795077C
:1022500020F079F4A6F50C945A120EF4E0950B2EAA
:10226000BA2FA02D0B01B90190010C01CA01A001E8
:102270001124FF27591B99F0593F50F4503E68F143
:102280001A16F040A22F232F342F4427585FF3CF84
:10229000469537952795A795F0405395C9F77EF455
:1022A0001F16BA0B620B730B840BBAF09150A1F09E
:1022B000FF0FBB1F661F771F881FC2F70EC0BA0F24
:1022C000621F731F841F48F4879577956795B795AC
:1022D000F7959E3F08F0B0CF9395880F08F09927A7
:1022E000EE0F9795879508950E94EC1108F481E010
:1022F00008950E9480116894B1110C945B120895A6
:102300000E94401288F09F5798F0B92F9927B75133
:10231000B0F0E1F0660F771F881F991F1AF0BA9589
:10232000C9F714C0B13091F00E945A12B1E008957B
:102330000C945A12672F782F8827B85F39F0B93F6D
:10234000CCF3869577956795B395D9F73EF490953C
:102350008095709561957F4F8F4F9F4F0895E894BA
:1023600009C097FB3EF490958095709561957F4FDD
:102370008F4F9F4F9923A9F0F92F96E9BB2793958B
:10238000F695879577956795B795F111F8CFFAF49B
:10239000BB0F11F460FF1BC06F5F7F4F8F4F9F4FCC
:1023A00016C0882311F096E911C0772321F09EE82A
:1023B000872F762F05C0662371F096E8862F70E090
:1023C00060E02AF09A95660F771F881FDAF7880F6A
:1023D0009695879597F90895990F0008550FAA0BC0
:1023E000E0E8FEEF16161706E807F907C0F0121628
:1023F0001306E407F50798F0621B730B840B950B2B
:1024000039F40A2661F0232B242B252B21F408957F
:102410000A2609F4A140A6958FEF811D811D08951C
:1024200097F99F6780E870E060E008959FEF80EC87
:10243000089500240A94161617061806090608952A
:1024400000240A9412161306140605060895092E90
:102450000394000C11F4882352F0BB0F40F4BF2BFF
:1024600011F460FF04C06F5F7F4F8F4F9F4F08953F
:1024700057FD9058440F551F59F05F3F71F0479535
:10248000880F97FB991F61F09F3F79F0879508951A
:10249000121613061406551FF2CF4695F1DF08C039
:1024A000161617061806991FF1CF86957105610556
:1024B00008940895E894BB2766277727CB0197F9FE
:1024C00008950E94EC1108F48FEF08950E9479128C
:1024D0000C9427120E94191238F00E94201220F04A
:1024E000952311F00C9410120C94161211240C94D4
:1024F0005B120E94381270F3959FC1F3950F50E064
:10250000551F629FF001729FBB27F00DB11D639FA5
:10251000AA27F00DB11DAA1F649F6627B00DA11D4B
:10252000661F829F2227B00DA11D621F739FB00DF1
:10253000A11D621F839FA00D611D221F749F332761
:10254000A00D611D231F849F600D211D822F762FFA
:102550006A2F11249F5750409AF0F1F088234AF0D7
:10256000EE0FFF1FBB1F661F771F881F9150504043
:10257000A9F79E3F510580F00C9410120C945B1249
:102580005F3FE4F3983ED4F3869577956795B795CA
:10259000F795E7959F5FC1F7FE2B880F911D9695E4
:1025A000879597F908950E94EC11880B990B08956F
:1025B000A1E21A2EAA1BBB1BFD010DC0AA1FBB1F47
:1025C000EE1FFF1FA217B307E407F50720F0A21BB9
:1025D000B30BE40BF50B661F771F881F991F1A9426
:1025E00069F760957095809590959B01AC01BD0150
:1025F000CF010895EE0FFF1F881F8BBF0790F69144
:10260000E02D1994F894FFCF04050607000102039A
:102610003132334134353642373839432A30234456
:102620000000000066020E030702B3023802160221
:102630002A02000000003C04FC03CB030000000061
:102640005C070E0306060506426F74C3B36E207363
:10265000696E0070726573696F6E61720046696AB7
:1026600061722074656D703A2000202020202020A7
:1026700020202020202020202020202000426F74B5
:10268000C3B36E0070726573696F6E61646F0054DE
:10269000656D7020646573656164613A20005465FE
:1026A0006D702061637475616C3A20006E616E001C
:0A26B000696E66006F766600430055
:020000040003F7
:10E000000D9489F10D94B2F10D94B2F10D94B2F129
:10E010000D94B2F10D94B2F10D94B2F10D94B2F1F0
:10E020000D94B2F10D94B2F10D94B2F10D94B2F1E0
:10E030000D94B2F10D94B2F10D94B2F10D94B2F1D0
:10E040000D94B2F10D94B2F10D94B2F10D94B2F1C0
:10E050000D94B2F10D94B2F10D94B2F10D94B2F1B0
:10E060000D94B2F10D94B2F10D94B2F10D94B2F1A0
:10E070000D94B2F10D94B2F10D94B2F10D94B2F190
:10E080000D94B2F10D94B2F10D94B2F10D94B2F180
:10E090000D94B2F10D94B2F10D94B2F10D94B2F170
:10E0A0000D94B2F10D94B2F10D94B2F10D94B2F160
:10E0B0000D94B2F10D94B2F10D94B2F10D94B2F150
:10E0C0000D94B2F10D94B2F10D94B2F10D94B2F140
:10E0D0000D94B2F10D94B2F10D94B2F10D94B2F130
:10E0E0000D94B2F141546D656761323536300041AF
:10E0F000726475696E6F206578706C6F72657220DE
:10E1000073746B3530305632206279204D4C530099
:10E11000426F6F746C6F616465723E004875683F52
:10E1200000436F6D70696C6564206F6E203D200048
:10E130004350552054797065202020203D20005FF9
:10E140005F4156525F415243485F5F3D2000415658
:10E1500052204C696243205665723D20004743437C
:10E160002056657273696F6E203D20004350552024
:10E1700049442020202020203D20004C6F7720663D
:10E18000757365202020203D20004869676820665F
:10E190007573652020203D200045787420667573D6
:10E1A00065202020203D20004C6F636B2066757336
:10E1B000652020203D20004D617220203720323024
:10E1C000313300312E362E3800342E332E350056A2
:10E1D00023202020414444522020206F7020636F70
:10E1E00064652020202020696E73747275637469E1
:10E1F0006F6E2061646472202020496E74657272B3
:10E20000757074006E6F20766563746F7200726A49
:10E210006D702020006A6D70200057686174207056
:10E220006F72743A00506F7274206E6F7420737541
:10E2300070706F72746564004D7573742062652030
:10E2400061206C6574746572002000577269747483
:10E25000696E672045450052656164696E672045B7
:10E26000450045452065727220636E743D00504F35
:10E27000525400303D5A65726F2061646472003FF1
:10E280003D43505520737461747300403D454550C3
:10E29000524F4D207465737400423D426C696E6B41
:10E2A000204C454400453D44756D70204545505215
:10E2B0004F4D00463D44756D7020464C415348001B
:10E2C000483D48656C70004C3D4C69737420492F83
:10E2D0004F20506F72747300513D51756974005234
:10E2E0003D44756D702052414D00563D73686F7707
:10E2F00020696E7465727275707420566563746FF0
:10E30000727300593D506F727420626C696E6B00BD
:10E310002A0011241FBECFEFD1E2DEBFCDBF01E046
:10E320000CBF12E0A0E0B2E0EEE1FDEF03E00BBFB6
:10E3300002C007900D92A030B107D9F712E0A0E01B
:10E34000B2E001C01D92AE30B107E1F70F9460F367
:10E350000D948DFE01E20EBF0FEF0DBF11241FBE05
:10E360000D9460F30D9400F020E030E040ED57E0B4
:10E3700005C0FA013197F1F72F5F3F4F2817390792
:10E38000C0F308959C01260F311DC901A0E0B0E043
:10E390002F5F3F4FABBFFC018791882361F08093D3
:10E3A000C6008091C00086FFFCCF8091C0008064D1
:10E3B0008093C000EACF08958DE08093C6008091DD
:10E3C000C00086FFFCCF8091C00080648093C000B5
:10E3D0008AE08093C6008091C00086FFFCCF8091C8
:10E3E000C00080648093C00008950F94C2F10F9420
:10E3F000DCF10895FC019081992359F09093C600B7
:10E400008091C00086FFFCCF8091C0008064809323
:10E41000C0003196992379F70895282F982F929567
:10E420009F70892F805D8A3308F0895F8093C600D2
:10E430008091C00086FFFCCF8091C00080648093F3
:10E44000C000822F8F70982F905D9A3308F0995FEB
:10E450009093C6008091C00086FFFCCF8091C000E1
:10E4600080648093C00008959C01FB01853691056E
:10E470001CF46330710594F0C90164E670E00F94F8
:10E480002EFE605D7F4F6093C6008091C00086FFC6
:10E49000FCCF8091C00080648093C0002B30310598
:10E4A00014F43297B4F0C90164E670E00F942EFEC4
:10E4B0006AE070E00F942EFE605D7F4F6093C600AF
:10E4C0008091C00086FFFCCF8091C0008064809363
:10E4D000C000C9016AE070E00F942EFEC0968093E0
:10E4E000C6008091C00086FFFCCF8091C000806490
:10E4F0008093C00008951F93182F8EE692EE60E07F
:10E500000F94C2F11093C6008091C00086FFFCCF2B
:10E510008091C00080648093C0000F94DCF11F9153
:10E5200008952F923F924F925F926F927F928F92B7
:10E530009F92AF92BF92CF92DF92EF92FF920F9392
:10E540001F93DF93CF93CDB7DEB762970FB6F894E2
:10E55000DEBF0FBECDBF382E622ECA01DB015C01CB
:10E560006D01772420E2222E2E010894411C511CBB
:10E570008BC081E0A81680E0B80681E0C80680E084
:10E58000D80628F0C601AA27BB270F940DF2BB2797
:10E59000AD2D9C2D8B2D0F940DF28A2D0F940DF225
:10E5A0002092C6008091C00086FFFCCF8091C00001
:10E5B00080648093C0009DE29093C6008091C0006B
:10E5C00086FFFCCF8091C00080648093C0002092C1
:10E5D000C6008091C00086FFFCCF8091C00080649F
:10E5E0008093C00019828601750188249924A1E0D6
:10E5F0003A1651F03A1620F0B2E03B1661F409C029
:10E600000BBFF701779007C0C7010F9477FE782EF4
:10E6100002C0F7017080872D0F940DF22092C60082
:10E620008091C00086FFFCCF8091C0008064809301
:10E63000C000872D8052F401EF70F0708F3520F408
:10E64000E40DF51D708204C0E40DF51D8EE280839B
:10E650000894E11CF11C011D111D0894811C911CE2
:10E6600090E18916910409F0C2CF80E190E0A0E02A
:10E67000B0E0A80EB91ECA1EDB1E198AC2010F9493
:10E68000FAF10F94DCF16A94662009F072CF629679
:10E690000FB6F894DEBF0FBECDBFCF91DF911F91B3
:10E6A0000F91FF90EF90DF90CF90BF90AF909F9031
:10E6B0008F907F906F905F904F903F902F90089534
:10E6C0002F923F924F925F926F927F928F929F9282
:10E6D000AF92BF92CF92DF92EF92FF920F931F9370
:10E6E000DF93CF93CDB7DEB7CD53D1400FB6F894BB
:10E6F000DEBF0FBECDBF01E20EBF0FEF0DBF94B75F
:10E70000F894A89514BE80916000886180936000A1
:10E7100010926000789493FF05C0E0910002F091A0
:10E7200001021995279A2F9A8091C00082608093E8
:10E73000C00080E18093C40088E18093C1000000A4
:10E74000EE24FF24870144E0A42EB12CCC24DD2448
:10E7500024C0C5010197F1F70894E11CF11C011DCB
:10E76000111D21E2E2162EE4F20620E0020720E06D
:10E77000120718F031E0C32ED12CC801B70127ECE5
:10E780003BE140E050E00F9441FE611571058105C9
:10E79000910519F485B1805885B98091C00087FD35
:10E7A00003C0C114D104A9F2A6014F5F5F4FC25E3E
:10E7B000DE4F59834883CE51D140C25EDE4F8881FF
:10E7C0009981CE51D140019711F00D9410FEC05D9A
:10E7D000DE4F19821882C053D14060E0C15DDE4F28
:10E7E0001882CF52D14088249924C35DDE4F19820C
:10E7F0001882CD52D140C05EDE4F188219821A8233
:10E800001B82C052D140CE5CDE4F188219821A8220
:10E810001B82C253D140EE24FF2487010BBFF701B6
:10E8200007911691C45CDE4F19830883CC53D14005
:10E830000D940BFEC25EDE4F28813981CE51D1404E
:10E840002130310509F52091C600C25EDE4F1982E4
:10E850001882CE51D14022C02F5F3F4F4F4F5F4FA4
:10E86000213082E138078AE7480780E0580780F0C6
:10E87000C45CDE4FE881F981CC53D140EF5FFF4F9C
:10E8800019F0EE27FF27099420E030E040E050E047
:10E890008091C00087FFE0CF2091C600C35DDE4FAE
:10E8A00048815981CD52D1404F5F5F4FC35DDE4FEC
:10E8B00059834883CD52D140213209F063C64A3092
:10E8C000510508F05FC60894811C911C53E0851621
:10E8D000910409F059C600E010E018C081E280936D
:10E8E000C6008091C00086FFFCCF8091C00080648C
:10E8F0008093C0002F5F3F4F2931310579F70F9486
:10E90000DCF10F5F1F4F0530110519F020E030E0FA
:10E91000E5CF10920A0210920B0210920C02109294
:10E920000D02109206021092070210920802109235
:10E930000902109202021092030210920402109235
:10E9400005028FEE90EE60E00F94F5F180E191EE1C
:10E9500060E00F94C2F18091C00087FFFCCF9091DE
:10E96000C600903608F09F759032B8F09093C600BC
:10E970008091C00086FFFCCF8091C00080648093AE
:10E98000C000A0E2A093C6008091C00086FFFCCF2B
:10E990008091C00080648093C000983409F4D7C18E
:10E9A0009934B8F4923409F459C1933458F490333B
:10E9B00019F1903308F4E3C59F33A1F1903409F0C5
:10E9C000DEC5BDC0953409F470C1963409F0D7C5D1
:10E9D00098C1923509F42BC2933538F49C3409F46C
:10E9E000F5C1913509F0CBC518C2963509F445C279
:10E9F000993509F0C4C567C483E792EE62E00F94CD
:10EA0000F5F110920602109207021092080210927D
:10EA1000090210920A0210920B0210920C0210923C
:10EA20000D0213C18FE792EE62E00F94F5F18FEEC5
:10EA300090EE60E00F94F5F181E291EE60E00F94CA
:10EA4000C2F187EB91EE60E00F94F5F180E391EE77
:10EA500060E00F94C2F184EE90EE60E00F94F5F167
:10EA60008FE391EE60E00F94C2F186E090E061E008
:10EA700070E00F9434F20F94DCF18DE591EE60E0DC
:10EA80000F94C2F189EC91EE60E00F94F5F18EE401
:10EA900091EE60E00F94C2F183EC91EE60E00F9490
:10EAA000F5F18CE691EE60E00F94C2F18EE10F94E7
:10EAB0000DF288E90F940DF281E00F940DF20F949E
:10EAC000DCF18BE791EE60E00F94C2F119E0E0E039
:10EAD000F0E010935700E4918E2F0F940DF20F94F5
:10EAE000DCF18AE891EE60E00F94C2F1E3E0F0E03F
:10EAF00010935700E4918E2F0F940DF20F94DCF1D8
:10EB000089E991EE60E00F94C2F1E2E0F0E0109349
:10EB10005700E4918E2F0F940DF20F94DCF188EAE8
:10EB200091EE60E00F94C2F1E1E0F0E01093570045
:10EB30001491812F0F940DF20F94DCF107CF8BE825
:10EB400092EE62E00F94F5F18BE492EE60E00F94A8
:10EB5000F5F10F94DCF100E010E019C0C8016F2D51
:10EB60000F947FFEFF2031F489E492EE60E00F9471
:10EB7000C2F10BC0F092C6008091C00086FFFCCFAE
:10EB80008091C00080648093C0000F5F1F4FC80158
:10EB900081519F41A0E0B0E0ABBFFC01F790BAE229
:10EBA000FB1621F0E2E000301E07C1F60F94DCF105
:10EBB0000F94DCF187E592EE60E00F94F5F10F948D
:10EBC000DCF1CC24DD2400E010E01EC0C8010F946D
:10EBD00077FEF82E882331F489E492EE60E00F94FA
:10EBE000C2F10BC08093C6008091C00086FFFCCFAD
:10EBF0008091C00080648093C000FE1419F00894D6
:10EC0000C11CD11C0F5F1F4FC80181519F41A0E063
:10EC1000B0E0ABBFFC01E790FAE2EF1621F022E092
:10EC20000030120799F60F94DCF10F94DCF182E6C4
:10EC300092EE60E00F94C2F1C60161E070E00F94C3
:10EC400034F20F94DCF10F94DCF110920202109276
:10EC50000302109204021092050278CE89E992EE26
:10EC600062E00F94F5F1279A2F9A16C02F9880E052
:10EC700090E0E0EDF7E03197F1F7019684369105E9
:10EC8000C1F72F9A80E090E0E0EDF7E03197F1F7DF
:10EC9000019684369105C1F78091C00087FFE6CFC9
:10ECA0008091C00087FFFCCF64C485EA92EE62E0E9
:10ECB0000F94F5F140910202509103026091040219
:10ECC0007091050281E020E10F9491F2809102029F
:10ECD00090910302A0910402B091050280509F4FD1
:10ECE000AF4FBF4F8093020290930302A0930402A0
:10ECF000B093050280509041A040B04008F426CE69
:10ED0000A4CF83EB92EE62E00F94F5F140910602FE
:10ED100050910702609108027091090280E020E1A1
:10ED20000F9491F28091060290910702A09108023F
:10ED3000B091090280509F4FAF4FBF4F80930602A2
:10ED400090930702A0930802B0930902FFCD80ECD4
:10ED500092EE62E00F94F5F183E792EE60E00F949B
:10ED6000F5F18FE792EE60E00F94F5F18BE892EE0B
:10ED700060E00F94F5F189E992EE60E00F94F5F10F
:10ED800085EA92EE60E00F94F5F183EB92EE60E09D
:10ED90000F94F5F180EC92EE60E00F94F5F187ECC2
:10EDA00092EE60E00F94F5F188ED92EE60E00F9442
:10EDB000F5F18FED92EE60E00F94F5F18AEE92EEB0
:10EDC00060E00F94F5F183E093EEBDCD87EC92EE19
:10EDD00062E00F94F5F181E40F947BF282E40F94EA
:10EDE0007BF283E40F947BF284E40F947BF285E45E
:10EDF0000F947BF286E40F947BF287E40F947BF20E
:10EE000088E40F947BF28AE40F947BF28BE40F94F6
:10EE10007BF28CE40F947BF299CD88ED92EE62E068
:10EE20000F94F5F1772473948824992409C48FED05
:10EE300092EE62E00F94F5F140910A0250910B02BC
:10EE400060910C0270910D0282E020E10F9491F22A
:10EE500080910A0290910B02A0910C02B0910D02D8
:10EE600080509F4FAF4FBF4F80930A0290930B0289
:10EE7000A0930C02B0930D0269CD8AEE92EE62E08F
:10EE80000F94F5F184EE90EE60E00F94F5F18FECC5
:10EE900091EE60E00F94F5F1662477244301CC5D98
:10EEA000DE4F19821882C452D140D401C301B695F5
:10EEB000A79597958795CA5DDE4F88839983AA8326
:10EEC000BB83C652D140CC5DDE4FA881B981C4520C
:10EED000D1401196CC5DDE4FB983A883C452D14096
:10EEE000CD0162E070E00F9434F2B0E2B093C6005E
:10EEF0008091C00086FFFCCF8091C0008064809329
:10EF0000C000EDE2E093C6008091C00086FFFCCF18
:10EF10008091C00080648093C000F0E2F093C6004E
:10EF20008091C00086FFFCCF8091C00080648093F8
:10EF3000C000CA5DDE4FE880F9800A811B81C6529D
:10EF4000D140BB27A12F902F8F2D0F940DF2CA5DBA
:10EF5000DE4F8881C652D1400F940DF2B0E2FB2EF5
:10EF6000F092C6008091C00086FFFCCF8091C00067
:10EF700080648093C0000DE30093C6008091C000C0
:10EF800086FFFCCF8091C00080648093C00010E2B7
:10EF90001093C6008091C00086FFFCCF8091C00016
:10EFA00080648093C0008BBEF3012791C65DDE4F65
:10EFB0002883CA52D140A22EBB24CC24DD2408943D
:10EFC000611C711C811C911C8BBEF3018791282E42
:10EFD0003324442455240894611C711C811C911C09
:10EFE0008BBEF3013791C55DDE4F3883CB52D140E4
:10EFF0000894611C711C811C911C8BBEF30147910C
:10F00000C45DDE4F4883CC52D140ADEFEA2EAFEF66
:10F01000FA2EAFEF0A2FAFEF1A2F6E0C7F1C801E57
:10F02000911E142D032DF22CEE24EA0CFB1C0C1D5A
:10F030001D1D0F940DF220E22093C6008091C000A8
:10F0400086FFFCCF8091C00080648093C000C65DC5
:10F05000DE4F8881CA52D1400F940DF230E23093D6
:10F06000C6008091C00086FFFCCF8091C000806404
:10F070008093C000C45DDE4F8881CC52D1400F9494
:10F080000DF240E24093C6008091C00086FFFCCFA5
:10F090008091C00080648093C000C55DDE4F888190
:10F0A000CB52D1400F940DF250E25093C6008091A4
:10F0B000C00086FFFCCF8091C00080648093C000B8
:10F0C0008FEFE8168FEFF80680E0080780E018075A
:10F0D00031F484E092EE60E00F94C2F1DFC0D80119
:10F0E000C7018070907CA070B0708050904CA040A0
:10F0F000B040D1F52FEF3FE340E050E0E222F322B1
:10F1000004231523CA5DDE4FA880B980CA80DB8046
:10F11000C652D140AE0CBF1CC01ED11EAA0CBB1CD7
:10F12000CC1CDD1C8EE092EE60E00F94C2F1BB2798
:10F13000A12F902F8F2D0F940DF28E2D0F940DF285
:10F1400030E23093C6008091C00086FFFCCF8091F2
:10F15000C00080648093C0004EE34093C60080915D
:10F16000C00086FFFCCF87C08EE09EEFA0E0B0E03D
:10F17000E822F9220A231B239CE0E91694E9F90608
:10F1800090E0090790E0190709F088C0C45DDE4FE0
:10F19000A881CC52D140EA2EFF2400E010E0102FCD
:10F1A0000F2DFE2CEE24C55DDE4FB881CB52D14031
:10F1B000EB0EF11C011D111DD601C501817090706F
:10F1C000A070B070DC0199278827E80EF91E0A1F8D
:10F1D0001B1F20EF30E040E050E0A222B322C42207
:10F1E000D52241E1AA0CBB1CCC1CDD1C4A95D1F7F1
:10F1F000EA0CFB1C0C1D1D1D81E090E0A0E0B0E0BE
:10F20000282239224A225B2235E1220C331C441C7D
:10F21000551C3A95D1F7E20CF31C041D151D57013E
:10F220006801AA0CBB1CCC1CDD1C85E192EE60E0E1
:10F230000F94C2F1C801AA27BB270F940DF2BB2778
:10F24000A12F902F8F2D0F940DF28E2D0F940DF274
:10F2500090E29093C6008091C00086FFFCCF809121
:10F26000C00080648093C000AEE3A093C60080918C
:10F27000C00086FFFCCF8091C00080648093C000F6
:10F28000C601AA27BB270F940DF2BB27AD2D9C2DDD
:10F290008B2D0F940DF28A2D0F940DF20F94DCF14B
:10F2A000CC5DDE4FE881F981C452D140F99709F471
:10F2B0004DCBF4E0EF2EF12C012D112D6E0C7F1CA7
:10F2C000801E911EF2CD83E093EE62E00F94F5F183
:10F2D0008AE192EE60E00F94C2F18091C00087FF56
:10F2E000FCCF1091C6001F751093C6008091C0001E
:10F2F00086FFFCCF8091C00080648093C0000F9493
:10F30000DCF1812F81548A3108F036C1163409F4BA
:10F3100095C0173490F4133409F44EC0143430F40B
:10F320001134F1F0123409F01DC130C0143409F465
:10F3300059C0153409F016C16BC01A3409F4C4C0A1
:10F340001B3438F4173409F48FC0183409F00AC19B
:10F35000A1C01B3409F4D2C01C3409F003C1E8C0B9
:10F360008FEF81B90DC082B1809582B980E090E0C5
:10F37000E0EDF7E03197F1F70196883C9105C1F790
:10F380008091C00087FFEFCF12B8EFC08FEF84B934
:10F390000DC085B1809585B980E090E0E0EDF7E0A3
:10F3A0003197F1F70196883C9105C1F78091C00033
:10F3B00087FFEFCF15B8D9C08FEF87B90DC088B1DF
:10F3C000809588B980E090E0E0EDF7E03197F1F7C3
:10F3D0000196883C9105C1F78091C00087FFEFCF6F
:10F3E00018B8C3C08FEF8AB90DC08BB180958BB9A7
:10F3F00080E090E0E0EDF7E03197F1F70196883C8E
:10F400009105C1F78091C00087FFEFCF1BB8ADC059
:10F410008FEF8DB90DC08EB180958EB980E090E0F0
:10F42000E0EDF7E03197F1F70196883C9105C1F7DF
:10F430008091C00087FFEFCF1EB897C08FEF80BBD1
:10F440000DC081B3809581BB80E090E0E0EDF7E0F6
:10F450003197F1F70196883C9105C1F78091C00082
:10F4600087FFEFCF11BA81C08FEF83BB0DC084B38C
:10F47000809584BB80E090E0E0EDF7E03197F1F714
:10F480000196883C9105C1F78091C00087FFEFCFBE
:10F4900014BA6BC08FEF809301010FC080910201FD
:10F4A00080958093020180E090E0E0EDF7E03197F5
:10F4B000F1F70196883C9105C1F78091C00087FF64
:10F4C000EDCF1092020151C08FEF809304010FC065
:10F4D0008091050180958093050180E090E0E0ED4A
:10F4E000F7E03197F1F70196883C9105C1F78091DB
:10F4F000C00087FFEDCF1092050137C08FEF8093DA
:10F5000007010FC08091080180958093080180E079
:10F5100090E0E0EDF7E03197F1F70196883C910536
:10F52000C1F78091C00087FFEDCF109208011DC088
:10F530008FEF80930A010FC080910B01809580931B
:10F540000B0180E090E0E0EDF7E03197F1F70196F4
:10F55000883C9105C1F78091C00087FFEDCF1092E4
:10F560000B0103C085E292EEEEC98091C00087FFD7
:10F57000FCCF8091C600EAC988E392EEE4C98CE131
:10F5800091EEE1C988249924933011F1943028F444
:10F59000913089F09230B8F408C0953061F195301F
:10F5A000F0F0963009F048C043C02B3109F042C951
:10F5B00091E06BE13FC96227C15DDE4F2883CF52E6
:10F5C000D14092E037C9B22FA0E0622793E032C960
:10F5D000822F90E0A82BB92B622794E02BC92E3004
:10F5E00009F039C3622795E0C05DDE4F19821882A9
:10F5F000C053D1401FC9E1E0F0E0EC0FFD1FC05D3A
:10F60000DE4F08811981C053D140E00FF11F2083E4
:10F610000F5F1F4FC05DDE4F19830883C053D14079
:10F6200062270A171B0709F005C9D80196E002C92D
:10F63000261709F010C303C0973009F0FBC87724E0
:10F640009981933109F412C19431C8F4963009F4C8
:10F65000D8C0973050F4923009F406C1933009F4C1
:10F660006DC0913009F059C253C0913109F477C08F
:10F67000923108F0BBC0903109F04FC2F5C098310B
:10F6800009F487C0993150F4953109F4EFC09531F0
:10F6900008F4C6C1963109F040C2C2C19A3109F4DA
:10F6A0006CC09A3108F491C09B3109F45BC09D3164
:10F6B00009F033C29D81903359F48F81882311F46E
:10F6C0009EE11CC0813011F091E018C098E916C08D
:10F6D000892F807591F0903539F4E0E0F0E089E011
:10F6E0008093570094910AC0983539F4E3E0F0E034
:10F6F00089E080935700949101C090E01A821B82A8
:10F700008D818C831D829E831F8227E030E009C299
:10F710001A8288E08B8381E48C8386E58D8382E581
:10F720008E8389E48F8383E5888780E589878FE5E9
:10F730008A8782E38B872BE030E0F3C18A818139AD
:10F7400041F0823941F0803911F48FE005C080E04A
:10F7500003C082E001C08AE01A828B8344C0772410
:10F76000739482C08D81882311F48EE12CC0813086
:10F7700011F081E028C088E926C01A82E1E0F0E0BB
:10F7800089E08093570084918B831C8224E030E0D1
:10F79000C8C18B81803589F48C81883039F4E2E0EE
:10F7A000F0E089E08093570084910DC0E0E0F0E044
:10F7B00089E080935700849106C0E3E0F0E089E09F
:10F7C0008093570084911A82DFCF8D81836C99E0FA
:10F7D000E1E0F0E0082E90935700E89507B600FCB2
:10F7E000FDCF1A821B8223E030E09BC180EC8A832C
:10F7F000CE5CDE4F188219821A821B82C253D1401E
:10F800008EC18A8190E0A0E0B0E0582F44273327D2
:10F8100022278B8190E0A0E0B0E0DC0199278827C7
:10F82000282B392B4A2B5B2B8D8190E0A0E0B0E098
:10F83000282B392B4A2B5B2B8C8190E0A0E0B0E089
:10F84000BA2FA92F982F8827282B392B4A2B5B2BCF
:10F85000220F331F441F551FC05EDE4F288339839C
:10F860004A835B83C052D1401A8259C13A81C95C34
:10F87000DE4F3883C753D140CA5CDE4F1882C6536F
:10F88000D1408B81C82EDD24CA5CDE4F488159816E
:10F89000C653D140C42AD52A933109F082C0CE5C28
:10F8A000DE4F88819981AA81BB81C253D1408050AB
:10F8B000904CA340B04030F583E0CE5CDE4FE88052
:10F8C000F9800A811B81C253D140F70100935B008C
:10F8D00080935700E89507B600FCFDCFCE5CDE4F65
:10F8E000088119812A813B81C253D14000501F4FAA
:10F8F0002F4F3F4FCE5CDE4F088319832A833B8313
:10F90000C253D140C05EDE4F488159816A817B81FC
:10F91000C052D140DE011B9631E08C9111962C91A2
:10F9200011971296C75CDE4F2883C953D140C85C3B
:10F93000DE4F1882C853D14090E0C85CDE4FE881AA
:10F94000F981C853D1408E2B9F2B0C01FA01609393
:10F950005B0030935700E89511244E5F5F4F6F4F67
:10F960007F4F0EEFE02E0FEFF02ECE0CDF1CC114F8
:10F97000D10499F685E0C05EDE4F088119812A81A5
:10F980003B81C052D140F80120935B008093570027
:10F99000E89507B600FCFDCF81E180935700E8951C
:10F9A00035C0C05EDE4F88819981AA81BB81C0527B
:10F9B000D140B695A795979587957C018601ABE0D8
:10F9C000AA2EB12CAC0EBD1E0BC0D5016D915D01F0
:10F9D000C7010F947FFE0894E11CF11C01501040F8
:10F9E0000115110591F7A60160E070E0440F551F65
:10F9F000661F771FC05EDE4FE880F9800A811B8199
:10FA0000C052D1404E0D5F1D601F711F1A82C05E33
:10FA1000DE4F488359836A837B83C052D1407FC0C5
:10FA2000FA80C55CDE4FF882CB53D140C65CDE4F16
:10FA30001882CA53D1408B81C82EDD24C65CDE4FAC
:10FA400008811981CA53D140C02AD12A1A828981DA
:10FA5000BE016D5F7F4F843121F59601C05EDE4FA0
:10FA6000E880F9800A811B81C052D1400BBFF701A9
:10FA700087919691DB018C9311969C936E5F7F4FDB
:10FA8000D801C7010296A11DB11DC05EDE4F88835B
:10FA90009983AA83BB83C052D14022503040F1F6F3
:10FAA00036C0C05EDE4F288139814A815B81C052F9
:10FAB000D1400894C108D108760100E010E0089414
:10FAC000C11CD11C0894E11CF11C011D111DE20E8A
:10FAD000F31E041F151F21BDBB27A52F942F832FB5
:10FAE00082BD2F5F3F4F4F4F5F4FF89A80B5DB01CC
:10FAF0008D93BD012E153F054007510761F7C05E8C
:10FB0000DE4F288339834A835B83C052D1409601FC
:10FB10002D5F3F4FFB01108204C080EC8A8322E0FE
:10FB200030E08BE18093C6008091C00086FFFCCF5F
:10FB30008091C00080648093C000C15DDE4FF88179
:10FB4000CF52D140F093C6008091C00086FFFCCF19
:10FB50008091C00080648093C000432F3093C60022
:10FB60008091C00086FFFCCF8091C00080648093AC
:10FB7000C000922F2093C6008091C00086FFFCCF6A
:10FB80008091C00080648093C0008EE08093C600A6
:10FB90008091C00086FFFCCF8091C000806480937C
:10FBA000C00065E1C15DDE4FE880CF52D1406E25D7
:10FBB00069276427FE01319610C090819093C6009A
:10FBC0008091C00086FFFCCF31968091C000806498
:10FBD0008093C0006927215030402115310569F715
:10FBE0006093C6008091C00086FFFCCF8091C0006A
:10FBF00080648093C00085B1805885B9772081F4F6
:10FC0000C15DDE4F0881CF52D1400F5FC15DDE4F35
:10FC10000883CF52D14090E0A0E0B0E00D941AF4F8
:10FC200027982F9880E090E020ED37E0F901319798
:10FC3000F1F7019684369105C9F700008091C00064
:10FC40008D7F8093C00081E180935700E895EE2777
:10FC5000FF270994FFCF90E00D941AF497FB092E2B
:10FC600007260AD077FD04D02ED006D000201AF443
:10FC7000709561957F4F0895F6F7909581959F4F08
:10FC80000895A1E21A2EAA1BBB1BFD010DC0AA1FDD
:10FC9000BB1FEE1FFF1FA217B307E407F50720F0F5
:10FCA000A21BB30BE40BF50B661F771F881F991F70
:10FCB0001A9469F760957095809590959B01AC01B9
:10FCC000BD01CF010895AA1BBB1B51E107C0AA1FAC
:10FCD000BB1FA617B70710F0A61BB70B881F991FED
:10FCE0005A95A9F780959095BC01CD010895F99991
:10FCF000FECF92BD81BDF89A992780B50895262F31
:10FD0000F999FECF1FBA92BD81BD20BD0FB6F89400
:0EFD1000FA9AF99A0FBE01960895F894FFCF63
:00000001FF
